:020000040800F2
:100000005851002059020008A92D0008592900085C
:100010005D2C0008C50A00083D3200080000000001
:100020000000000000000000000000009D0100082A
:10003000050C000800000000F1010008F52E000882
:1000400073020008730200087302000873020008BC
:1000500073020008730200087302000873020008AC
:10006000730200087302000873020008730200089C
:10007000730200087302000873020008730200088C
:10008000730200087302000873020008D50A000812
:10009000C90A00087302000873020008730200080E
:1000A000730200087302000873020008730200085C
:1000B000730200087302000873020008730200084C
:1000C000730200087302000873020008730200083C
:1000D000730200087302000873020008730200082C
:1000E000730200087302000873020008730200081C
:1000F000730200087302000873020008730200080C
:1001000073020008730200087302000873020008FB
:1001100073020008730200087302000873020008EB
:1001200073020008730200087302000873020008DB
:1001300073020008000000000000000073020008C5
:1001400073020008730200087302000873020008BB
:1001500073020008730200087302000873020008AB
:10016000730200087302000873020008730200089B
:100170007302000873020008000000000000000085
:100180007302000873020008DFF80CD000F030FCA6
:1001900000480047F14B0008585100202B4B1968CC
:1001A0000868B0E8F04F80F30988BFF36F8F4FF015
:1001B000000080F3118870470000000006480068C6
:1001C000006880F3088862B661B6BFF34F8FBFF353
:1001D0006F8F00DF00BF00BF08ED00E0DFF80C000C
:1001E000016841F470010160704700BF88ED00E0D4
:1001F000EFF30980BFF36F8F144B1A681EF0100FD6
:1002000008BF20ED108A20E9F04F106008B44FF0CD
:10021000500080F31188BFF34F8FBFF36F8F05F04D
:10022000A9FC4FF0000080F3118808BC1968086829
:10023000B0E8F04F1EF0100F08BFB0EC108A80F34A
:100240000988BFF36F8F704700BF00BF34000020E4
:10025000EFF30580704700000648804706480047D6
:10026000FEE7FEE7FEE7FEE7FEE7FEE7FEE7FEE766
:10027000FEE7FEE7A52F0008890100080180428003
:1002800043607047F0B40388426844884888002679
:100290004D689C46834205BF09888C426FF002007E
:1002A000A7081CBFF0BC7047380005EB86011BD0C7
:1002B000B2EC010A401E0004000C81ED000A01EBC3
:1002C0008301B2EC010A81ED000A01EB8301B2EC7B
:1002D000010A81ED000A01EB8301B2EC010A81ED14
:1002E000000A01EB8301E3D114F003000AD000BF40
:1002F000B2EC010A401E0004000C81ED000A01EB83
:100300008301F5D1701C86B2ACF101001FFA80FCAC
:10031000BCF1000FC8D1F0BC002070472DE9F05FA0
:100320000546002092469B46884606468146402464
:100330001BE0284641464746224600F052FA534603
:100340005A46C01A914110D311461846224600F071
:1003500039FA2D1A67EB01084F4622460120002189
:1003600000F030FA17EB00094E41201EA4F1010401
:10037000DFDC484631462A464346BDE8F09F40EA66
:1003800001039B0703D009E008C9121F08C0042A13
:10039000FAD203E011F8013B00F8013B521EF9D2FA
:1003A0007047D2B201E000F8012B491EFBD2704722
:1003B0000022F6E710B513460A4604461946FFF731
:1003C000F0FF204610BD2DE9FE4F804681EA030074
:1003D000C00F0C46009021F0004123F00045B8EB1F
:1003E0000200A94105D24046214690461C460B46D4
:1003F000024623F00040104347D0270DC7F30A0000
:10040000C3F30A510290401A019040286BDAC3F3FB
:10041000130040F4801B0098924620B10023D2EBD9
:10042000030A63EB0B0B01985946C0F1400250469A
:1004300000F0C8F906460D4650465946019A00F0AC
:10044000E0F910EB08006141002487EA115284EAC8
:10045000E7731A4340D0009A62B3019A012A4FEA27
:10046000075215DC001B61EB02014FF0004202EA6B
:100470000752CDE90042001C41F5801132462B465F
:1004800000F017FA03B0BDE8F08F40462146F9E7C7
:10049000001B61EB0201001C41F5801300185B4159
:1004A0002018A2F5001747EB030140EAD570B619F2
:1004B0006D4111E06D084FEA360645EAC0754FEA16
:1004C0000752001B61EB0201001C41F58011490835
:1004D0004FEA30000019514132462B4603B0BDE8C7
:1004E000F04F00F0D7B90098012240000023D0EB74
:1004F000020263EBE073009821464FEAE074B8EB28
:10050000000061EB0401E9E783F000435BE781F061
:10051000004158E72DE9FE4F81EA030404F000444E
:1005200021F0004100944FF0000B23F0004350EA0B
:1005300001045ED052EA03045BD0C3F30A54C1F352
:100540000A552C44A4F2F3340194A0FB0254C1F3E5
:10055000130141F48011C3F3130343F4801301FB2F
:10056000024400FB034E840A970A44EA815447EA96
:100570008357A4FB076802958D0A05FB07854FEAA0
:10058000932C04FB0C542705029D4FEA065847EABA
:100590001637B5EB08056EEB070C870E920E47EA8F
:1005A000811742EA8312A7FB0201B6EB0B0164EB51
:1005B00000042B0D43EA0C335E1844EB1C50DA4662
:1005C0005146E7FB0201C5F313044FEA0B3343EA3C
:1005D00014534FEA0432019C43EA0603A4F10C04CD
:1005E0000294009CCDE900B400F063F903B0BDE8CB
:1005F000F08F00200146F9E72DE9F04D81EA030470
:1006000004F0004B21F0004514464FF0000A23F09F
:10061000004150EA050220D054EA01021DD0C5F382
:100620000A570246C5F31303C1F31300C1F30A5678
:1006300040F4801543F48013A7EB0608101BD64640
:1006400008F2FD3873EB050002D308F1010801E060
:1006500092185B41B8F1000F03DA00200146BDE8B3
:10066000F08D00204FF48011064684460EE0171BE3
:1006700073EB050705D3121B63EB050306434CEA36
:10068000010C49084FEA300092185B4150EA01071B
:10069000EDD152EA030012D082EA040083EA050198
:1006A000084305D0101BAB4106D20122002306E00F
:1006B00000224FF0004302E06FF0010253101AEBEA
:1006C00006004CEB085110EB0A0041EB0B01BDE8B2
:1006D000F04D00F0DFB80EB5C10F80EAE0700844BD
:1006E000CA07002140F233438DE80E000A460B464C
:1006F00000F0DFF803B000BD70B5C1F30A5201F09D
:1007000000450024C1F3130140F2FF3341F480118E
:100710009A4201DA002070BD40F233439A42A2F2BD
:10072000334203DC524200F05CF800E090402C437E
:10073000F1D0404270BD00F0004230F000400AD0DD
:10074000C10D01F56071C0F3160042EA0151C20803
:1007500040071143704700200146704730B5041E22
:1007600071F1000404DB4FF00044404264EB0101EE
:10077000141E73F1000405DB1C464FF00043524287
:1007800063EB04038B4208BF824230BD01F000439B
:1007900030B421F0004150EA010206D00A0DA2F562
:1007A0006072C1F31301002A02DC30BC00207047E4
:1007B000440F44EAC104C100E01830BC00EBC25051
:1007C00000F031B8202A04DB203A00FA02F10020C0
:1007D00070479140C2F1200320FA03F3194390407F
:1007E0007047202A04DB203A21FA02F000217047EA
:1007F00021FA02F3D040C2F1200291400843194689
:100800007047202A06DBCB17203A41FA02F043EA70
:10081000E07306E041FA02F3D040C2F120029140B9
:100820000843194670470029A8BF7047401C49007B
:1008300008BF20F00100704710B4B0FA80FC00FA45
:100840000CF050EA010404BF10BC704749B1CCF170
:10085000200421FA04F411FA0CF118BF01212143FC
:100860000843A3EB0C01CB1D4FEA00614FEA1020B7
:1008700042BF002010BC704700EBC3501044002959
:10088000A4BF10BC7047401C490008BF20F0010005
:1008900010BC704710B5141E73F1000408DA401C38
:1008A00041F1000192185B411A4301D120F001008F
:1008B00010BD2DE9F04D92469B4611B1B1FA81F27F
:1008C00002E0B0FA80F220329046FFF77BFF044648
:1008D0000F4640EA0A0041EA0B0153465A460843D4
:1008E00013D0114653EA010019D0C8F14002504616
:1008F000FFF777FF05460E46504659464246FFF73A
:1009000061FF084305D0012004E020463946BDE8D8
:10091000F08D0020054346EAE0762C4337430A98E1
:100920006305E40AA0EB08000022FD0A44EA4754EC
:100930000A3002D500200146E9E701051019694196
:10094000DDE9084500196941BDE8F04DA2E72DE950
:10095000F04D00231A461B1A8A4103DB0020014692
:10096000BDE8F08DC1F30A52C1F3130141F48015C3
:100970004FF0000BD10702D100186D41521E002725
:10098000044640F2FF11384601EB620A3E468046BB
:10099000024600204FF48011FFF723FFC219714176
:1009A000BB1846EB0100B4EB030C75EB000C04D351
:1009B000E41A65EB000517460E46241908F10100FC
:1009C0006D4180463428E3DDF91946EB0600091B2A
:1009D000A84103D24FF0FF32134601E00022134634
:1009E0001BEB070046EB0A51BDE8F04DFFF752BF85
:1009F000064C074D06E0E06840F0010394E807006C
:100A000098471034AC42F6D3FFF7C2FB6C60000885
:100A10008C60000870B58C1810F8015B15F00703A6
:100A200001D110F8013B2A1106D110F8012B03E087
:100A300010F8016B01F8016B5B1EF9D12B0705D48F
:100A40000023521E0DD401F8013BFAE710F8013BD8
:100A5000CB1A921C03E013F8015B01F8015B521EF4
:100A6000F9D5A142D8D3002070BD0000F0B5134ED7
:100A7000044685B00D46304600F0D0F9074601F037
:100A8000F5F800200090022004900120CDE90270CA
:100A90000B49684601F056F80028F9D107E0002319
:100AA00022783146184601F0A3F8641C761C6D1EAE
:100AB000F5D201F093F805B00020F0BD00000E085B
:100AC000D8000020FEE70000014800F09BBC0000B9
:100AD000A4010020014800F095BC0000A401002002
:100AE00010B5002958D0826B4FF4D873046803EB1B
:100AF0000113E45814F0040494600468E4584DD0E1
:100B0000E40854600468E35803F00203D3604FF430
:100B1000DA73046803EB0113E45804F00F04146162
:100B200011620468E358C3F30723D3614FF4DC7305
:100B3000046803EB0113E45814750468E458240AAC
:100B400054750468E458240C94750468E3581B0E2B
:100B5000D3754FF4DE73046803EB0113E458147685
:100B60000468E458240A54760468E458240C947603
:100B70000468E3581B0ED3760368202289B11A61FA
:100B80000268536923F05003536190F83C20222AF5
:100B90000DD0322A0BD00FE0426BA5E7640D146034
:100BA000B0E7DA600268536923F00A03ECE70268F1
:100BB000536923F40F43536112220123002990F853
:100BC0003C1006D0522914D0622915D0722906D1C2
:100BD00014E042290DD0622907D0722907D080F88D
:100BE0003C3000F061FE002010BD322107E05221B0
:100BF00005E080F83C20F4E7222100E0422180F863
:100C00003C10EEE770470000002229B101291AD0FC
:100C100002291BD04FF440720E490B6823F4407335
:100C20000B600B6813430B600A6822F0F8020A603D
:100C30000A68022303EBC00002430A60086840F41C
:100C40008030086070474FF48072E5E74FF400721F
:100C5000E2E70000103C02401348016889050FD507
:100C6000016821F400710160016841F400610160D4
:100C7000016821F400610160016841F400710160C4
:100C8000016849050FD5016821F4806101600168A0
:100C900041F480510160016821F4805101600168D4
:100CA00041F4806101607047003C024008490A68D5
:100CB00022F440720A600A6842F004020A600A687C
:100CC0004FF4803343EA002002430A60704700007B
:100CD000103C0240064A136823F440731360136803
:100CE0001360136843F00103136001707047000044
:100CF000103C0240084910B50C6824F440740C60A4
:100D00000C6844F440740C600C6844F001040C60FE
:100D10000260436010BD0000103C0240074A1368A7
:100D200023F440731360136843F4807313601368F3
:100D300043F001031360018070470000103C024043
:100D4000074A136823F440731360136843F4007375
:100D50001360136843F001031360016070470000E3
:100D6000103C024017490868C206174805D5C269F9
:100D700042F01002C26110220A600A68920605D58C
:100D8000C26942F00802C26120220A600A68520663
:100D900005D5C26942F00402C26140220A600A68B5
:100DA000120605D5C26942F00202C26180220A60C1
:100DB0000A68920705D5C26942F02002C26102208A
:100DC000086070470C3C02408401002070B5114956
:100DD00004460020C86101F045F805460E4E09E0C2
:100DE000601C07D024B101F03DF8401BA04201D99E
:100DF000032070BD3068C003F2D43068C00701D052
:100E000001203060306810F0F200F2D0FFF7AAFF46
:100E1000012070BD840100200C3C024001460020EE
:100E2000A1F100624FF480439A4204D3214A0A445C
:100E30009A4201D2012070471F4A0A449A4201D2C5
:100E4000022070471D4A0A449A4201D2032070478B
:100E50001B4A0A44B2F5803F01D204207047194A68
:100E60004FF400330A449A4201D205207047164AD3
:100E70000A449A4201D206207047144A0A449A4210
:100E800001D207207047124A0A449A4201D2082030
:100E90007047104A0A449A4201D2092070470E4A0C
:100EA0000A449A4201D20A2070470C4A9142FBD36D
:100EB0000B20704700C0FFF70080FFF70040FFF7EE
:100EC0000000FFF70000FEF70000FCF70000FAF753
:100ED0000000F8F70000F6F70000F4F700000E0835
:100EE0002DED048B82B0F349F34803F085FCF34CFD
:100EF000F3EE0E2A94ED000ADFEDF18AF1EE041A0A
:100F00000021B0EE682A9FEDEF8AEF48B0EE481A54
:100F1000F0EE480A04F081F994ED010AF3EE0E2A8E
:100F20009FEDEA9AE848F1EE041AB0EE492A002152
:100F3000B0EE481AF0EE480A543004F06EF9E24878
:100F400094ED020AF3EE0E2AB0EE682AF1EE041ACE
:100F50000021B0EE481AF0EE480AA83004F05DF91E
:100F6000D94894ED030AF3EE0E2AB0EE492AF1EEC9
:100F7000041A0021B0EE481AF0EE480AFC3004F0E2
:100F80004CF9F3EE0E2AB0EE682AF1EE041A0021B5
:100F90009FEDCF1AF0EE480A9FEDCE0ACE4804F03E
:100FA0003CF9F3EE0E2AB0EE682AF1EE041A0021A5
:100FB0009FEDCA0AB0EE401ADFEDC90AC6485430A8
:100FC00004F02BF9C44894ED040AF3EE0E2AB0EEB7
:100FD000682AF1EE041A0021B0EE481AF0EE480A31
:100FE000543804F01AF904F05AF8DFF8DCA2A4F13E
:100FF00008090AF1540B0AF51377A4F11008DFED84
:10100000B98A9FEDB99A07F10C0404F11805009014
:101010003879012803D0002102281FD000E00121E7
:10102000002211431CD0A548A74990ED000AA83121
:101030008AED000A90ED010A8BED000A90ED020A9C
:1010400081ED000A90ED030A543181ED000A90ED24
:10105000040A01F1540080ED000A19E00122E0E7E2
:1010600010B1FF280FD013E097488AED008AA8300E
:101070008BED008A80ED008A543080ED008A543078
:1010800080ED008A04E099490120087104F060FBBA
:1010900003F0D6FD03F028F83879042873D002282D
:1010A00070D003286ED00020B871B7F9000000EEB0
:1010B000100AB8EEC00A9FED8E1AC0EE010A94ED38
:1010C000000AB0EE681A30EE800AF0EE490A84EDAC
:1010D000000A02F0FBFE84ED000A01F021FED4EDCF
:1010E000000A7948C4ED010A4E4699ED010AA8307C
:1010F00004F002F87848F0EE400A96ED000AA838AD
:1011000003F0FAFF84ED020AB7F9020000EE100ABC
:10111000B8EEC00ADFED770A20EE200A85ED000A5E
:1011200002F074FED5ED010A464698ED010A6648C4
:1011300003F0E2FF6448F0EE400A96ED000A5430F6
:1011400003F0DAFF85ED020A94ED020A6A4ABDEE69
:10115000C00A10EE100A95ED020A01B2BDEEC00AF7
:1011600010EE100A92ED000A00B2BDEEC00A10EEB9
:10117000102A12B204F0FAFA0121684603F083FF44
:1011800046E700E01CE001F06BFD4F48D4ED010A9A
:101190004E4699ED010AA83003F0AEFF4E48F0EE3E
:1011A000400A96ED000AA83803F0A6FF84ED020A73
:1011B0004948D5ED010A464698ED010A5438B7E78B
:1011C00001F0AEFD4D48464690ED070A4C4888EDCB
:1011D000000A90ED090A88ED010AB7F9000000EE57
:1011E000100AB8EEC00ADFED470A20EE200A84EDAF
:1011F000050AB7F9020001EE100AB8EEC11A61EE55
:10120000200AC5ED050A387902282ED094ED000A8F
:10121000B0EE681AF0EE490A02F058FE84ED000ABA
:10122000D5ED010A96ED010A274803F065FF26482F
:10123000F0EE400A96ED000A543003F05DFF85EDB4
:10124000020A2148D4ED010A4E4699ED010AA83060
:1012500003F052FF2048F0EE400A96ED000AA8384D
:1012600003F04AFF84ED020A70E7F0EE480A1A48DC
:1012700003F042FFD4ED010AB0EE681A30EE200A06
:10128000F0EE490A84ED010A02F020FE84ED010A25
:10129000114884ED000A95ED050AF0EE480A543035
:1012A00003F02AFFD5ED010A30EE200A85ED010A90
:1012B000B6E7000068470020DC4C00201801002041
:1012C00000803B46000000005844002000409C463F
:1012D0000AD7A3BBF7CC92B8FC4500208FC2753C5F
:1012E00000000080807F4A3DF4DF03BE58470020A5
:1012F0000000C84800000039E0000020F03F002056
:10130000484300200AD7233C10B5087D01228240C3
:101310003A48D0F8003243F00103C0F80032D0F868
:10132000003223F47C53C0F80032D0F800324C6A0B
:1013300043EA0423C0F80032D0F81C329343C0F8CB
:101340001C32CB69B3B9D0F80C329343C0F80C32DD
:101350008C894B6864F31F434C6900EBC404C4F8E8
:1013600040320C890B6864F31F434C6900EBC404E2
:10137000C4F84432CB69012B16D1D0F80C32134398
:10138000C0F80C320C884B6864F31F434C6900EBC7
:10139000C404C4F840320C89CB6864F31F434C6921
:1013A00000EBC404C4F844328B69002BD0F804323B
:1013B00005D01343C0F804320B6913B106E0934320
:1013C000F8E7D0F814329343C0F814320B69012BBC
:1013D00004D1D0F814321343C0F81432096A012939
:1013E00004D1D0F81C121143C0F81C12D0F800121E
:1013F00021F00101C0F80012002010BD006400407F
:10140000704700002DE9F041044600680026C168DD
:101410004269C1F30011C2F3C002102311B10AB135
:101420005E01C360206801694269C1F30011C2F323
:10143000801219B112B146F48066036121684869CF
:101440004FF00105C043C0074ED18A6876489043EB
:1014500023D000228B687548984320D000238F68E2
:101460007348B8431DD000201A4302433CD088681B
:101470008A68C0F340008B68C2F34022C3F3404344
:101480001043184329D04A69204622F001024A61DC
:1014900094F83C10122906D00AE00122DAE7012371
:1014A000DDE70120E0E701684A6922F40F424A6162
:1014B00090F83C10422908D0522908D0722908D04F
:1014C00080F83C5000F02EFB09E0222102E032219E
:1014D00000E0622180F83C10F4E746F400662068E2
:1014E0008168544A114381602068C168406911F0E5
:1014F000030FC0F3400004D018B100212046FFF7CD
:10150000EFFA20680169406911F0030FC0F3001081
:1015100004D018B101212046FFF7E2FA206C3043D5
:10152000206420688169C1F3000241694369C1F305
:101530000021C3F3C0332AB121B11BB1216C41F0AA
:10154000010121648169C1F3400241694369C1F32A
:101550004021C3F3C0332AB121B11BB1216C41F04A
:10156000020121648169C1F3800241694369C1F3C9
:101570008021C3F3C0332AB121B11BB1216C41F0EA
:1015800004012164816911F0700F08D000214269C3
:101590004369C2F3C022C3F3C03311B121E001217A
:1015A000F5E7F2B1EBB1816901F0700140292FD06C
:1015B00006DC102909D020290BD030290DD123E0D9
:1015C000502929D0602908D12AE0216C41F0080176
:1015D00002E0216C41F010012164816921F0700169
:1015E0008161206C00280DD021680420486084F8B7
:1015F0003C502068416948F65B7291434161204646
:10160000FFF7FEFEBDE8F081216C41F02001E3E729
:10161000216C41F04001DFE7216C41F08001DBE704
:10162000216C41F48071D7E7030000040003000837
:1016300000000310190501002DE9F04104004FF0EE
:10164000000604D094F83C00002518B107E0012002
:10165000BDE8F08184F83D50204600F093F8022068
:1016600084F83C002068016821F0020101602068D4
:10167000016841F00101016000F0F4FB07464FF002
:10168000030804E000F0EEFBC01B0A2862D82068C3
:101690004068C007F6D020684168C90767D0A169D3
:1016A000012901683FD021F080010160E069012833
:1016B000206801683AD021F040010160206A0128C9
:1016C0002068016835D021F020010160606A01289E
:1016D0002068016830D021F010010160A06A012863
:1016E000206801682BD021F008010160E06A012820
:1016F0002068016826D021F004010160D4E90201CC
:101700000843D4E90412114308436168491E0843A1
:101710002168C8612068016821F00101016000F0C2
:10172000A1FB07461BE041F08001BEE741F040010C
:10173000C3E741F02001C8E741F01001CDE741F0D7
:101740000801D2E741F00401D7E700F08BFBC01B92
:101750000A2804D904F83C8F0320657078E72068D4
:101760004068C007F1D120684068C00700D02EB1A2
:101770002564012084F83C00002069E7042084F8F7
:101780003C0064E700B50068164987B0884227D15D
:1017900015480021026842F000720260006800F003
:1017A000007005904FF4C05000900220CDE9010177
:1017B000032003900920049069460C4800F06CFA5D
:1017C00000220521132000F0D7FB132000F0C8FBF6
:1017D00000220521142000F0CFFB142000F0C0FBF4
:1017E00007B000BD006400404038024000000240E5
:1017F00030B511B1012924D00FE090F83C20222A05
:1018000027D090F83C20422A23D090F83C20622A2E
:101810001FD090F83C20722A1BD090F83D20012A5E
:1018200017D0012280F83D20622490F83C207223DA
:1018300089B1122A19D0222A1BD0422A1CD0322266
:1018400014E090F83C20322A03D090F83C20522A31
:10185000DBD1022030BD122A05D0322A09D0522A0B
:101860000AD0222202E0422200E0522280F83C20EC
:1018700004E080F83C4001E080F83C300023036441
:101880000268546948F601752C43546180F83D3074
:1018900000680029416904D041F0500141610020F5
:1018A00030BD41F00A01F9E710B5416B40F2072461
:1018B0000A68A2F20723A24228D009DC284BA2F52D
:1018C00000724FF47A64053A07D0012A42D111E040
:1018D000F92B27D0FA2B3DD12EE08A8A52BA1A80F2
:1018E000C98AA24249BA998034D241F6FF711144A3
:1018F00019802FE08A8A52BA5A80C98AA24249BA0C
:10190000D98027D202F500525A8023E08A8A53BA3E
:10191000134A921F1380CB8A5BBA5380098B49BA52
:10192000918017E08A8A53BA0E4A5380CB8A5BBAF9
:101930001380097E11710DE08A8A53BA0A4A138016
:10194000CB8A5BBA53800B7E13714B7E5371498BEC
:1019500049BA11810068416941F00201416110BD3D
:10196000CE000020E4000020A44600202DE9F05F16
:101970000E46016804468868400105D48868000165
:1019800002D48868C00070D594F83D0001280DD0BD
:101990004FF0010884F83D8094F83C00222808D0DC
:1019A000322808D062280ED0122005E00220BDE8BF
:1019B000F09F422000E0522084F83C0088684001FB
:1019C00003D5002507E07220F6E78868000101D5FD
:1019D000012500E002254FF4C07000EB05100A5805
:1019E00002F001020A50216B8A68EAB323681F588B
:1019F0001743CA68496842EAC1010F431F50216B6F
:101A00000A7C02F00F020A614FF4C271226801EBF6
:101A10000511535823F00F03535022685358276B76
:101A20003F693B435350216B4FF4C47303EB0513E1
:101A30000A7DD1F8151042EA01222168CA50216BB3
:101A40004FF4C67303EB05130A7ED1F8191042EA6E
:101A500001222168CA5021680A5842F001020A5046
:101A600000F000FA074601E007E050E04FF00009FF
:101A7000DFF8A4A0DFF8A4B023E022681358CF68F1
:101A800009883B4343EA41511150B8E7701C18D014
:101A900026B100F0E7F9C01BB04212D9032084F848
:101AA0003C004DB1012D09D04FF400002168886041
:101AB00084F83D9003207AE78020F7E74FF4004058
:101AC000F4E78DB12068012D816812D01448884355
:101AD0000028DBD194F83C0042280DD052280DD0CC
:101AE000722812D040460AE0206881682AEA010084
:101AF000EEE72BEA0100EBE7222000E0322084F839
:101B00003C0084F83D90002051E76220F7E7042074
:101B100084F83C0001204AE70300000400030008A9
:101B200000000310704731B500F09CF9009C054699
:101B3000601C00D0641C00F095F9401BA042FAD351
:101B400038BD00002DE9F047044622480E46017ECC
:101B500001290AD00121804601764CF250394846CD
:101B6000FFF734F9020003D02FE00220BDE8F08730
:101B70004FF0FF3030602068174F012801D0A56872
:101B80001CE0207C6168FFF791F84846FFF71EF9DA
:101B90000246386820F00400386014E0217C2846B2
:101BA000FFF732F84846FFF711F90200386820F0D5
:101BB000FA00386001D0356005E06D1CD4E90210F0
:101BC0000844A842EAD8FFF747F8002188F818101F
:101BD0001046CBE784010020103C02400348016816
:101BE00041F000410160002070470000103C0240BD
:101BF0002DE9F0471B4E05461446307E1F468946A8
:101C0000012808D0012030764CF250384046FFF7CA
:101C1000DDF818B114E00220BDE8F0879DB1012D78
:101C200016D0022D19D022463B464846FFF762F8EF
:101C30004046FFF7CBF80C490A6822F001020A601F
:101C400000213176E8E7E1B24846FFF743F8EFE7D5
:101C5000A1B24846FFF762F8EAE721464846FFF797
:101C60006FF8E5E784010020103C0240074900209E
:101C70000A68002A09DA054A054B0C3A1360054B3D
:101C800013600968002900DA01207047103C024007
:101C900023016745AB89EFCD2DE9F84FDFF88C9133
:101CA000002209F1040A0AF1040B4FF00F080BF1AE
:101CB000040E01260B6896403340B34271D14C6844
:101CC000022C01D0122C11D1D40800EB84073D6AFC
:101CD0005407E40E08FA04FC25EA0C05D1F810C0FC
:101CE0000CFA04FC4CEA050CC7F820C00768540045
:101CF000032591F804C0A5400CF0030CAF430CFA87
:101D000004FC4CEA070CC0F800C04F68012F05D056
:101D1000022F03D0112F01D0122F11D18768D1F8D3
:101D20000CC0AF430CFA04FC4CEA070CC0F808C026
:101D30004768B7430E79C6F3001696403E434660A7
:101D4000C668AE438D68A5403543C5604C68E40065
:101D500065D5374C256845F480452560246822F018
:101D6000030504F480440094324C2E19D6F8087808
:101D70009407250F08FA05F4A7432F4CA04201D180
:101D8000002424E02D4CA04201D101241FE02C4C62
:101D9000A04201D102241AE02A4CA04202D103241D
:101DA00015E03CE0284CA04201D104240FE0274C70
:101DB000A04201D105240AE0254CA04201D106240D
:101DC00005E0244CA04201D1072400E00824AC40E7
:101DD0003C43C6F80848D9F800404D464E689C433D
:101DE000F60300D51C432C60DAF8004055464E68D7
:101DF0009C43B60300D51C432C60DBF800405D46D5
:101E00004E689C43F60200D51C432C60DEF800406F
:101E100075464E689C43B60200D51C432C60521C8C
:101E2000102AFFF446AFBDE8F88F0000003C0140E7
:101E300044380240003001400000024000040240EB
:101E400000080240000C0240001002400014024052
:101E500000180240001C02400AB181617047090469
:101E6000FBE7000001480068704700000000002008
:101E700002480168491C0160704700000000002012
:101E80000B4810B5016841F400710160016841F42C
:101E900080610160016841F480710160032000F0FD
:101EA0008BF80F2000F006F800F018F8002010BDA5
:101EB000003C024010B5044607484FF47A710068B0
:101EC000B0FBF1F000F023FC00222146501E00F090
:101ED00053F8002010BD0000DC0000201F4808B5AA
:101EE000016841F480410160006800F48040009086
:101EF0001A48001F016841F080510160006800F03D
:101F000080500090032000F057F8002211466FF037
:101F10000B0000F031F8002211466FF00A0000F0CB
:101F20002BF8002211466FF0090000F025F800227E
:101F30001146501F00F020F800221146101F00F03B
:101F40001BF800220F21901E00F016F800220F212E
:101F5000BDE80840501E00F00FB8000044380240B1
:101F600000F01F02012191404009800000F1E020B3
:101F7000C0F8001170470000F0B40E4B1B68C3F3AB
:101F80000223C3F10704042C00D904241D1D072DCE
:101F900001D2002300E0DB1E012606FA04F56D1EC7
:101FA0000D409D409E40761E164045EA0601F0BC5D
:101FB00000F0FBBE0CED00E0064A00F007011068DF
:101FC0004FF6FF03184040EA012003490843106020
:101FD000704700000CED00E00000FA052DE9F04725
:101FE0000D46040065D0DFF81491D9F80000EFB277
:101FF00000F00F00A84207D289F80070D9F800005D
:1020000000F00F00A84254D120683D4E810712D540
:10201000400703D5306840F4E05030602078000776
:1020200003D5306840F4604030603068A16820F02B
:10203000F000084330602078C0072DD03049606838
:102040000839012812D0022813D0032811D00968BA
:10205000890700292DDA316821F00301014331603D
:10206000FFF700FF804641F2883A0EE009688903D5
:10207000EFE709688901ECE7FFF7F4FEA0EB080140
:10208000514502D90320BDE8F0873068616800F04F
:102090000C00B0EB810FEFD1D9F80010484601F0E9
:1020A0000F01A94207D90770006800F00F00A8428D
:1020B00001D00120E7E72078400705D53068E168C6
:1020C00020F4E050084330602078000706D53068DF
:1020D000216920F4604040EAC100306000F01CF843
:1020E0003168084AC1F30311515CC84006490860D1
:1020F0000F20FFF7DFFE0020C5E70000003C024094
:1021000008380240465F0008DC00002001480068F3
:1021100070470000DC000020154810B5006810F082
:102120000C01144813D0431004290FD008290ED1F4
:102130000F4C241F216801F03F022168490207D596
:102140002068C0F38810A0FB030106E0184610BD0C
:102150002168C1F38811A1FB00010023FEF7DEF81E
:102160002168C1F30141491C4900B0FBF1F010BDE9
:10217000083802400024F4002DE9F84F04006ED026
:102180002078DFF8C4A2B14DC00748D0DAF80010BB
:102190005046C1F38101012908D00068C0F38100D5
:1021A00002280AD1281D0068400206D5286880034D
:1021B00035D560680028E2D031E06068B0F5803F36
:1021C00010D0B0F5A02F286810D020F480302860FF
:1021D000286820F4802028606068A0B1FFF742FEE4
:1021E00006460CE0286840F48030F4E740F4802094
:1021F0002860F7E7FFF736FE801B642873D828684D
:102200008003F7D50BE0FFF72DFE064604E0FFF74D
:1022100029FE801B6428F1D828688003F7D4207831
:10222000DFF82C8280074FF0010B4FF000093DD5FD
:10223000DAF80010504611F00C0F09D00068C0F316
:10224000810002280CD18048001F0068400207D49A
:102250002868800714D5E068012800D110E0F1E07B
:10226000E068A8B1C8F800B0FFF7FCFD064604E03E
:10227000FFF7F8FD801B022835D828688007F7D5BE
:102280002868216920F0F80040EAC10028600DE0CC
:10229000C8F80090FFF7E6FD064604E0FFF7E2FD10
:1022A000801B02281FD828688007F7D420780007F1
:1022B00022D5654F674861696C3771B1C0F800B0CD
:1022C000FFF7D0FD064604E0FFF7CCFD801B022897
:1022D00009D838688007F7D50EE0C0F80090FFF7FE
:1022E000C1FD064605E082E0FFF7BCFD801B022829
:1022F0007DD838688007F7D42078400750D55248F9
:102300003830016841F0805101600068524F00F0A0
:1023100080500090386840F480703860FFF7A2FD6C
:10232000064604E0FFF79EFD801B02285FD8386850
:10233000C005F7D5444FA068683701280FD005289D
:10234000386810D020F001003860386820F00400B0
:102350003860A068B0B1FFF785FD06460EE038682A
:1023600040F00100F4E740F004003860F7E7FFF7C1
:1023700079FD811B41F2883081425BD83868800743
:10238000F5D50DE0FFF76EFD064606E0FFF76AFDA6
:10239000811B41F2883081424CD838688007F5D4DF
:1023A000A06928B3DAF80010C1F38101022949D0ED
:1023B0000228484605D0C8F86000FFF753FD0446E0
:1023C0003BE04746C8F86000FFF74CFD064604E0D6
:1023D000FFF748FD801B02282CD828688001F7D41D
:1023E000D4E907010843A16A1C4A490801E021E039
:1023F00026E002EB0141626A41EA8211084394F847
:102400002C1040EA01611048001F0160C7F860B05D
:10241000FFF728FD044604E0FFF724FD001B022817
:1024200008D828688001F7D50AE0FFF71BFD001BDC
:10243000022802D90320BDE8F88F28688001F4D46F
:102440000020F8E70120F6E7083802400038024093
:1024500000004742800E4742007000400000FFFF2E
:1024600070B5040005D00025A56294F8510010B1A4
:1024700006E0012070BD84F85050204600F030F88E
:10248000022084F851002068016821F040010160B9
:10249000D4E901010843D4E90312114308436169F7
:1024A0000843218B01F400710843E1690843216A64
:1024B0000843A16A084321680860A069042101EA71
:1024C0001040616A0843216848602068C16921F4AE
:1024D0000061C1616565012084F85100002070BD74
:1024E00000B500680E4987B0884217D10D48002119
:1024F000026842F400420260006800F40040059067
:102500004FF4E05000900220CDE901010320039038
:102510000620049069460448FFF7BEFB07B000BDE3
:10252000003C004040380240000802402DE9F84FCE
:10253000044690F850000127DDF828809B46164697
:102540000D464FF0000901280ED0012084F85000FC
:10255000FFF788FC824694F85100616801280CD08E
:10256000B1F5827F07D102E00220BDE8F88FA168B3
:1025700009B9042801D00220A2E045B13EB1BBF167
:10258000000F04D094F85100012802D004E001208B
:1025900096E0052084F8510000206065A663A4F849
:1025A0003EB0A4F83CB02563A4F836B0A4F834B02B
:1025B0002064606420680168490603D4016841F022
:1025C00040010160E068B0F5006F606804D0D0B3EE
:1025D000E08E012838D063E010B1E08E01282BD1C5
:1025E000216835F8020BC860E08E401EE08623E0CB
:1025F00067B1E08E50B120688168890706D535F84B
:10260000021BC160E08E401EE0860027E08F50B1C3
:1026100020688168C90706D0C06826F8020BE08FE1
:10262000401EE0870127B8F1FF3F05D0FFF71AFCF5
:10263000A0EB0A01414542D2E08E0028D8D1E08FBC
:102640000028D5D132E0FFE7216815F8010B0873A7
:10265000E08E401EE08623E067B1E08E50B1206836
:102660008168890706D515F8011B0173E08E401EAD
:10267000E0860027E08F50B120688168C90706D046
:10268000C06806F8010BE08F401EE0870127B8F113
:10269000FF3F05D0FFF7E6FBA0EB0A0141450ED254
:1026A000E08E0028D8D1E08F0028D5D14346012202
:1026B00002212046CDF800A000F097FB10B10320C6
:1026C000814610E052464146204600F07EFB20B194
:1026D00020204FF00109606505E0A06818B9206866
:1026E000C16880680090012084F85100002084F8BF
:1026F0005000484639E74FF0E0210428086903D02C
:1027000020F004000861704740F00400FAE710B5BB
:10271000401EB0F1807F01D3012010BD4FF0E024B6
:1027200060610F21601700F040FB0020A0610720CE
:102730002061002010BD30B590F83820012A20D04B
:10274000012380F83830022280F83920026854686A
:1027500024F070045460026854680D682C4354607F
:102760000268946824F08004946002689468496860
:102770000C43946080F83930002180F83810084606
:1027800030BD022030BD000010B500680E4C0021A5
:10279000C023022286B0A04207D10093CDE90121D7
:1027A000CDE903126946094809E0094CA04208D165
:1027B0000093CDE90121CDE9031269460548FFF7F1
:1027C0006BFA06B010BD000000040040000002409B
:1027D000000800400004024070B5044690F838003C
:1027E0000D4601280DD0012684F83860022084F8B7
:1027F000390042B1042A18D0082A2AD00C2A4DD117
:1028000039E0022070BD206800F062FC2068816918
:1028100041F0080181612068816921F00401816132
:10282000206881692A69114311E0206800F07CFC6E
:102830002068816941F4006181612068816921F427
:1028400080618161206881692A6941EA0221816190
:1028500024E0206800F09AFC2068C16941F008017A
:10286000C1612068C16921F00401C1612068C169AA
:102870002A69114311E0206800F0B8FC2068C169A2
:1028800041F40061C1612068C16921F48061C161C6
:102890002068C1692A6941EA0221C16184F839606E
:1028A000002084F8380070BD10B5040003D094F8FF
:1028B000390010B107E0012010BD002084F8380075
:1028C000204600F00DF8022084F83900211D206810
:1028D00000F092FB012084F83900002010BD0000B8
:1028E00008B500680B4A0C49904207D1086840F0CF
:1028F00002000860086800F0020009E0074A904200
:1029000007D1086840F004000860086800F004007F
:10291000009008BD0004004040380240000800401C
:1029200010B504460068012200F0C6FB0848216883
:10293000814202D00748814203D1486C40F40040F4
:1029400048642068016841F001010160002010BD69
:102950000000014000040140FEE70000114810B5EE
:102960000F4901600321416000214FF00072C0E96E
:102970000212921102614FF44012C0E905210122B6
:10298000C0E9072141628162C162FEF755FE00285D
:1029900005D0BDE810404F2103A000F050BC10BD91
:1029A00000640040A40100202E2E2F5372632F6379
:1029B000616E2E630000000010B590B01422114922
:1029C0006846FDF7DCFC0021684602F07EFB0E4CF9
:1029D0000C4914222060143105A8FDF7D0FC002119
:1029E00005A802F072FB07496060142228310AA88A
:1029F000FDF7C5FC00210AA802F067FBA06010B03B
:102A000010BD0000FC5E0008040000202DE9F0432A
:102A10002B4887B00024016841F080010160016803
:102A200001F080010591016841F001010160016838
:102A300001F001010591016841F0040101600168A4
:102A400001F004010591016841F002010160006894
:102A50001C4F00F002000590002210213846FFF7BD
:102A6000FBF9DFF86480002220214046FFF7F4F9EB
:102A7000DFF858904FF48046002231464846FFF771
:102A8000EBF9102000900125CDE901546946384644
:102A90000394FFF701F920200090CDE90154694625
:102AA00040460394FFF7F8F80096CDE901546946D3
:102AB00048460394FFF7F0F807B0BDE8F083000044
:102AC000303802400000024000080240000402408A
:102AD000104810B50E4901604FF482714160002129
:102AE0008160C1604FF400720161C0E90512C161EB
:102AF0000162416281620A21C162FFF7B1FC0028D4
:102B000005D0BDE810404F2103A000F098BB10BDD8
:102B1000003C0040E80100202E2E2F5372632F73DB
:102B200070692E630000000010B520488AB01E496D
:102B3000016053210024C0E9011444F61F61C0E97B
:102B40000314FFF7B1FE18B1492119A000F077FB7B
:102B5000079407A915480894FFF7EDFD18B1502117
:102B600013A000F06CFB602000904FF47A70CDE968
:102B70000104002269460D480494FFF72DFE18B1A8
:102B800059210BA000F05BFB042269460748FFF7C0
:102B900023FE18B15E2106A000F051FB0348FFF7A9
:102BA000F3FD0AB010BD0000000400404002002008
:102BB0002E2E2F5372632F74696D2E630000000058
:102BC00010B521488AB01F49016053210024C0E993
:102BD000011444F61F61C0E90314FFF765FE18B144
:102BE00071211AA000F02BFB079407A9164808943E
:102BF000FFF7A1FD18B1782114A000F020FB6020A0
:102C000000904FF47A70CDE90104002269460E4825
:102C10000494FFF7E1FD18B181210CA000F00FFB37
:102C200042F210700190042269460748FFF7D4FD74
:102C300018B1872105A000F002FB0348FFF7A4FDAF
:102C40000AB010BD000800407C0200202E2E2F5339
:102C500072632F74696D2E6300000000FEE70000B0
:102C60002B4B10B518882C4AA0F51450303801EEC3
:102C7000100A28491078B8EEC11A01EB8004DFED84
:102C8000230A84ED001A5B88B0EE600AA3F5B853FE
:102C9000E23B01EE103A01F1280303EB8004B8EEA9
:102CA000C11A401CC0B284ED001A002410700A281A
:102CB00000D114705470507801EB800494ED001A28
:102CC00003EB8004401C71EE200A94ED001AC0B2A0
:102CD000507031EE000A0A28EDD3B2EE041A0E4805
:102CE000C0EE811A0C30A0F108020C49C0EE010AB6
:102CF000C0ED011AC2ED010A91ED050A80ED000A4E
:102D000091ED070A82ED000A10BD000000000000EE
:102D1000CE0000200847002004010020F03F0020E2
:102D20001C481F499FED1C1A00881C4AA0F514502E
:102D3000303800EE900A88789FED150AF8EEE00A28
:102D400002EB8003401CC0B260EE810AC3ED000AB2
:102D5000002388700A2800D18B70CB70C87802EBF2
:102D60008003401CD3ED000AC0B2C87030EE800A68
:102D70000A28F3D3F2EE040A094880EE201A0C3038
:102D8000084980ED011A91ED050A80ED000A7047AF
:102D900000000000CE00002000000039E0460020C6
:102DA00004010020F03F002070470907090E0028A9
:102DB00006DA00F00F0000F1E02080F8141D7047E3
:102DC00000F1E02080F80014704738B50B460092FF
:102DD00004460022802100F008F8002804D0606D2D
:102DE00040F020006065032038BD2DE9F0411D460C
:102DF00017460E460446DDF8188035E0681C33D0CF
:102E00002DB1FFF72FF8A0EB0800A8422CD32068C3
:102E1000416821F0E00141606068B0F5827F0BD12C
:102E2000A068B0F5004F02D0B0F5806F04D12068E3
:102E3000016821F040010160A06AB0F5005F0AD18D
:102E4000206801684DF6FF7211400160206801683A
:102E500041F400510160012084F85100002084F801
:102E600050000320BDE8F0812068806836EA000049
:102E700004D00020B842C1D10020F3E70120F9E7D7
:102E800008B51648F3EE0E2A9FED152AF1EE041A46
:102E900090EC030A0021134802F0BFF90F48F3EE4B
:102EA0000E2A0C309FED102AF1EE041A90EC030A62
:102EB00001210C48543002F0B0F902F0F0F8009013
:102EC00001F0DEF801F082FE02F078FC02F030FC46
:102ED0000A21684602F0D7F8F2E70000EC00002073
:102EE00000803B46B043002000409C46012002F099
:102EF000C3F8FBE710B5FEF7BBFFBDE8104002F0DA
:102F0000DAB8000030B5254893B00025016841F0DB
:102F100080510160006800F08050119020480168E5
:102F200041F4804101600068022400F48040119067
:102F30000120039010200490009406940820CDE90D
:102F40000750A820CDE9090404200B906846FFF73C
:102F500013F900B1FEE70CA90F2081E831004FF40E
:102F6000A0500F904FF48050109005210CA8FFF74F
:102F700035F800B1FEE7FFF7C9F84FF47A71B0FBFE
:102F8000F1F0FFF7C4FB0420FFF7B5FB00220F218F
:102F9000501EFEF7F1FF13B030BD00004038024074
:102FA000007000401048016841F4700101600F4852
:102FB000016841F0010101600C4A002108321160F2
:102FC00002680B4B1A400260031D0A4A1A6002682D
:102FD00022F48022026005480C3001600249580644
:102FE000803908607047000088ED00E0003802403A
:102FF000FFFFF6FE10300024F0B50268234D244E8A
:10300000244FDFF894C0254B4FF0804EA84209D0E2
:10301000704507D0B04205D0B84203D0604501D01A
:10302000984203D122F070044A682243A8421BD080
:10303000704519D0B04217D0B84215D0604513D0B2
:10304000984211D0164CA0420ED0164CA0420BD084
:10305000154CA04208D0154CA04205D0144CA042FB
:1030600002D0144CA04203D122F44074CA68224317
:1030700002608A68C2620A688262A84201D09842ED
:1030800001D10969016301214161F0BD00000140E6
:103090000004004000080040000C00400004014013
:1030A0000040014000440140004801400018004039
:1030B000001C00400020004010B50123046A8B4032
:1030C0009C430462036A8A401343036210BD0000FC
:1030D00030B5026A22F001020262056A4268836921
:1030E0000C6823F073031C438B6825F002052B4307
:1030F0000B4DA84202D00B4DA8420BD123F008057E
:10310000CB6822F440722B434D6923F0040315432E
:103110008A692A434260846149684163036230BD21
:10312000000001400004014030B5026A22F01002A4
:103130000262036A426884690D6824F4E64444EA42
:1031400005248D6823F0200343EA05130D4DA842A2
:1031500002D00D4DA8420ED1CD6823F0800343EA82
:1031600005134D6922F4406242EA85028D6923F01D
:10317000400342EA850242608461496881630362D8
:1031800030BD0000000001400004014030B5026A7B
:1031900022F480720262036A4268C46923F40073F5
:1031A00024F073050C682C438D6843EA05230D4D0C
:1031B000A84202D00C4DA8420ED1CD6823F4006382
:1031C00043EA05234D6922F4405242EA05128D6913
:1031D00023F4806342EA05124260C4614968C16316
:1031E000036230BD000001400004014030B5026AB6
:1031F00022F480520262036A4268C4690D6824F4B2
:10320000E64444EA05248D6823F4005343EA053379
:10321000084DA84202D0084DA84204D14D6922F4BD
:10322000804242EA85124260C461496801640362D7
:1032300030BD00000000014000040140FEE7FEE751
:1032400003B401984100009850EAC12018BF04203F
:103250004A0D18BF40F0010040F2FF72B2EB515F1F
:1032600008BF40F00200012808BF052002B07047E7
:1032700070B5C1482DED020B2DED0E8B82B0119D66
:1032800025F000449FEDBEDB9FEDBFEB84423EDBAB
:10329000A4F140511098A1F17F6108430FD0BC48C0
:1032A000844202DC28D1109830B39DED100B02B09F
:1032B000BDEC0E8B02B0BDE8704000F0A6BC9DEDE9
:1032C000100B53EC1D2B51EC100BFDF723F99DED6A
:1032D000100B41EC180B53EC1E2B51EC100BFDF7AF
:1032E00019F953EC182BFDF76EF841EC100B02B0F6
:1032F000BDEC0E8B02B070BD012000F0CDFC02B021
:10330000BDEC0E8B02B0BDE8704000F095BCA1484A
:103310009FEDA18B844256DA9DED100BB4F1795FDD
:103320000ADA51EC100BFFF78BFF042808BF00F0FE
:1033300093FC9DED100BDAE753EC102B51EC100BC6
:10334000FDF7E8F841EC190B95480621B0EE490A63
:10335000F0EE690A784400F0DCFB53EC192B51ECD9
:10336000100BFDF7D7F841EC1A0B8E48B0EE490A66
:10337000F0EE690A0421784400F0CBFB53EC192BE2
:1033800051EC100BFDF7C6F853EC182BFDF71BF8AA
:1033900041EC100B51EC1A0B53EC102BFDF72CF9F0
:1033A000CDE900019DED000B53EC102B9DED100BB2
:1033B00051EC100BFDF7AEF89DED101B53EC112BEB
:1033C000FDF701F8D2E09DED100B51EC100B00F071
:1033D000ABFD53EC182BFDF79AF89FED730BCDE97D
:1033E000000153EC102B9DED000B51EC100BFDF781
:1033F00091F841EC190B6E480621B0EE490AF0EE47
:10340000690A784400F085FB53EC192B51EC100B42
:10341000FDF780F841EC1B0B6648B0EE490AF0EE70
:10342000690A0421784400F074FB53EC192B51EC29
:10343000100BFDF76FF853EC182BFCF7C4FF41ECB1
:103440001C0B51EC190B02F0D4F941EC180B5A4843
:103450009FED5BABA04222DC53EC1C2B51EC1B0B11
:10346000FDF7CAF8CDE900019DED000B51EC180BFA
:1034700053EC102BFDF74EF853EC182BFCF7A3FF81
:1034800053EC1A2BFDF746F853EC1D2BFDF73CF8D7
:1034900053EC1E2BFDF73BF841EC100B5FE08DED7C
:1034A000008B002000909DED000B51EC180B53ECAD
:1034B000102BFCF788FF9DED000B41EC1E0B53EC2D
:1034C000102B51EC100BFDF725F853EC192BFDF7E1
:1034D0001EF853EC1E2BFDF78FF841EC190B53EC43
:1034E0001C2B51EC1B0BFDF787F841EC1B0B53EC2D
:1034F0001A2B51EC190BFDF70DF853EC1D2BFDF7B2
:1035000006F841EC190B53EC1A2B51EC180BFDF794
:1035100001F853EC1B2BFCF7FDFF53EC192BFCF7C8
:10352000F3FF9DED000B41EC180B53EC1A2B51EC03
:10353000100BFCF7EFFF9FED249B53EC192BFCF7CE
:10354000E6FF41EC100B51EC180B53EC102BFCF781
:10355000DBFF53EC192BFCF7DAFF41EC100B002DCD
:103560003FF7C5AE51EC100B81F0004141EC100B60
:10357000BDE60000000000000000F03F0000000079
:10358000075C143326A6913C182D4454FB21F93FC7
:103590000000F07F0000E03F000000000000F03F6E
:1035A000002C00000E2C0000000000000000E03F96
:1035B000522B0000602B00003333EF3F000000006F
:1035C0000000000000000040182D4454FB21E93F9A
:1035D00070B59B482DED020B2DED068B079D25F058
:1035E0000044A04218DC9748844202DC0AD10698C5
:1035F00040B19DED060BBDEC068B02B0BDE87040FE
:1036000000F003BB002DCCBF9FED8F0B9FED900B07
:10361000BDEC068B02B070BD8F48A04215DD8F480F
:10362000A042D8BF4FF0FF3458DD9DED060B51ECA2
:10363000100BFFF705FE042808BF00F00DFB9DED01
:10364000060BBDEC068B02B070BD9DED060B51EC78
:10365000100B00F069FCCDE9060181489FED828BDB
:10366000A0423CDD8248A0421FDD00249FED82ABDA
:103670009DED060B53EC1A2B51EC100BFCF7A3FE3F
:103680009DED060B41EC190B53EC1A2B51EC100B72
:10369000FCF740FF53EC182BFCF736FF53EC192BCB
:1036A000FCF7AAFFCDE9060149E09DED060B0124D8
:1036B00053EC182B51EC100BFCF785FE9DED060B1F
:1036C00041EC190B53EC182B51EC100BFCF71CFFC1
:1036D00053EC192BFCF790FFCDE906012FE0684869
:1036E000A0421FDD02249FED689B9DED060B53EC6D
:1036F000192B51EC100BFCF70DFF53EC182BFCF7BA
:1037000062FE9DED060B41EC180B53EC192B51ECAE
:10371000100BFCF7F9FE53EC182BFCF76DFFCDE90D
:1037200006010CE09DED060B032453EC102B9FEDDE
:10373000580B51EC100BFCF75FFFCDE906019DED36
:10374000060B53EC102B51EC100BFCF7E3FE41EC95
:10375000180B53EC182BFCF7DDFE41EC190B4E480F
:103760000621B0EE490AF0EE690A784400F0D1F97A
:1037700053EC182B51EC100BFCF7CCFE41EC180B62
:103780004648B0EE490AF0EE690A0521784400F097
:10379000C0F953EC192B51EC100BFCF7BBFE41ECBC
:1037A000100B51EC180B53EC102B002C0EDAFCF71D
:1037B0000AFE9DED061B53EC112BFCF7ABFE9DEDB5
:1037C000061B53EC112BFCF7A2FE35E0FCF7FBFDCA
:1037D0009DED061B53EC112BFCF79CFE41EC100BEE
:1037E0002F48784400EBC40090ED001B51EC100B07
:1037F00053EC112BFCF788FE9DED061B53EC112BAF
:10380000FCF782FE41EC100B2648784400EBC40024
:1038100090ED001B51EC100B53EC112BFCF777FED5
:1038200041EC100B002DA2BFBDEC068B02B070BDA9
:1038300051EC100B81F0004141EC100B01E700004E
:10384000000010440000F07F182D4454FB21F93F84
:10385000182D4454FB21F9BF0000DC3F0000203E3E
:103860000000F33F00000000000000000000F03FF7
:103870000000E63F000000000000000000000040E3
:103880000080034000000000000000000000F83F3E
:10389000000000000000F0BFA2280000582800002F
:1038A000E22700009A27000070B56B4E2DED040B47
:1038B0002DED028B82B0DDF81CC0DDE905235C42F2
:1038C0002CF000411C4341EAD474049D22F00040D6
:1038D000B44205D86C422C4340EAD474B4420BD9AC
:1038E0009DED061B9DED040B02B0BDEC028B04B0F8
:1038F000BDE8704000F093B9ACF14054A4F17F648E
:103900001C430BD0022404EAAC7444EAD27405438D
:103910009FED538B9FED542B07D015E09DED040BCD
:1039200051EC100B00F090FA42E0002C11BF012C7A
:103930009DED040B02B0BDEC028B04BF04B070BD62
:10394000022C38D0032C3BD00B439FED491B9FED3D
:103950004A0B0AD0B14218D1B04209D121F08041BE
:1039600020F08040079105900FE0002A15DA10E062
:10397000434B7B44002C08BF93ED000B0DD0012C72
:1039800010D0022C17D0032C1AD0B0421DD1002A1F
:1039900003DAB0EE410AF0EE610A02B0BDEC028B30
:1039A00004B070BD93ED000B51EC100B81F00041A1
:1039B00041EC100BF1E7B0EE480AF0EE680AECE7D4
:1039C000B0EE420AF0EE620AE7E7401A00153C2822
:1039D000C8BF8DED000B19DCBCF1000FBEBF10F1AC
:1039E0003C0F9FED290B8DED000B0FDB9DED060BC2
:1039F00053EC102B9DED040B51EC100BFCF7FCFD70
:103A000000F092FA00F020FACDE90001002C08BF86
:103A10009DED000BC1D0012C10D0022C9FED1C0B92
:103A200053EC102B9DED000B51EC100B0DD0FCF75F
:103A30006BFD53EC182BFCF767FDB9E7019880F09C
:103A4000004001909DED000BA7E7FCF75DFD53ECF6
:103A5000182BFCF75CFDABE70000F07F00000000D6
:103A6000182D4454FB210940182D4454FB2109C052
:103A7000182D4454FB21F9BF182D4454FB21F93F64
:103A8000CA26000000000000000000000000000046
:103A9000075C143326A6A13C00B52DED048BB0EED7
:103AA000409AF0EE609A83B051EC190BFCF74FFF8F
:103AB00041EC180B18EE100A18EE901A8DED008BE1
:103AC000002818BF0120084320F00040C0F17F60AB
:103AD00000F1E040C00F14D019EE101A19EE900A50
:103AE0008DED009B002918BF0121084320F0004004
:103AF000C0F17F6000F1E040C00F04BF012000F082
:103B0000CBF8B0EE480A03B0F0EE680ABDEC048BC7
:103B100000BD70B504462DED028B4D1E00EBC500B7
:103B2000B0EE408AF0EE608A90ED000B35F00600B2
:103B300017D053EC182B51EC100BFCF7EBFC41ECBD
:103B4000100B6D1E04EBC50090ED001B51EC100B2B
:103B500053EC112BFCF737FC41EC100B35F0060051
:103B6000E7D1022D36D0042D1CD0062D1CBFBDEC94
:103B7000028B70BD53EC182B51EC100BFCF7CAFCF8
:103B800094ED0A1B53EC112BFCF71DFC53EC182B86
:103B9000FCF7C0FC94ED081B53EC112BFCF713FC55
:103BA00041EC100B53EC182B51EC100BFCF7B2FC52
:103BB00094ED061B53EC112BFCF705FC53EC182B72
:103BC000FCF7A8FC94ED040B53EC102BFCF7FBFB6B
:103BD00041EC100B53EC182B51EC100BFCF79AFC3A
:103BE00094ED021B53EC112BFCF7EDFB53EC182B5F
:103BF000FCF790FC94ED001B53EC112BFCF7E3FB5E
:103C0000BDEC028B41EC100B70BD10B553EC102BCA
:103C100051EC100BFCF7D7FB41EC100B10BD10B5AD
:103C200053EC112B51EC100BFCF7CDFB41EC100BBE
:103C300010BD0000000000009FED050B10B553EC17
:103C4000102B51EC100BFCF7D7FC41EC100B10BD06
:103C500000000000000000009FED050B10B553ECC4
:103C6000102B51EC100BFCF755FC41EC100B10BD68
:103C7000000000000000001002E008C8121F08C188
:103C8000002AFAD170477047002001E001C1121FDD
:103C9000002AFBD17047000001490860704700000E
:103CA00080010020F0EE400A90ED000AB4EEE00A38
:103CB000F1EE10FA06DCF1EE600AB4EEE00AF1EE85
:103CC00010FA01D2B0EE600A7047000070B50446E9
:103CD0002DED088B042004EBC001401E002891ED5F
:103CE000081B81ED0A1B11ED021B81ED001BF2DCAC
:103CF000B0EE408AF0EE608A84ED008B206D0028E3
:103D000006DD0020206584ED0A0BBDEC088B70BD3C
:103D10003D4D2869FCF70FFD94ED121B53EC112B60
:103D2000FCF7F8FB41EC190BE868FCF704FD94ED97
:103D3000101B53EC112BFCF7EDFB41EC1A0BA868A0
:103D4000FCF7F9FC94ED0E1B53EC112BFCF7E2FB96
:103D500041EC1B0B6868FCF7EEFC94ED0C1B53EC7C
:103D6000112BFCF7D7FB53EC1B2BFCF72CFB53EC74
:103D70001A2BFCF728FB53EC192BFCF724FB143D02
:103D800041EC1B0BA868FCF7D6FC94ED041B53EC2C
:103D9000112BFCF7BFFB94ED061B94ED020B41ECDD
:103DA0001A0B53EC112B51EC100BFCF70CFB41ECF4
:103DB000190B6868FCF7BFFC53EC192BFCF7AAFB46
:103DC00094ED080B41EC190B53EC102B51EC180B34
:103DD000FCF7F9FA41EC180B2868FCF7ACFC53EC43
:103DE000182BFCF797FB53EC192BFCF7ECFA53EC70
:103DF0001A2BFCF7E8FA53EC1B2BFCF785FBC4E904
:103E00000A0141EC100B80E7B40000200A480C497D
:103E100090ED070A094880ED000A91ED090A80ED4E
:103E2000010A084890ED010AD0ED000A30EE200AA0
:103E300080ED010A70470000F03F002008010020DB
:103E400048430020C846002010B541EC100BFFF796
:103E5000BFFB51EC100B10BD102202490248FCF7C9
:103E60008EBA000000000E0858470020044902A046
:103E7000C860FFF7F1BF00006779726F00000000B3
:103E80005847002000B58BB000200121CDE9060184
:103E90000590009001900290039004900E20CDE9CF
:103EA000081069460448FDF72FFA034803490163E7
:103EB0001C3141630BB000BDA40100207043002001
:103EC00000210148FDF794BCA4010020B4EEC10A12
:103ED000F1EE10FA02DDB0EE410A7047B4EEE00AEE
:103EE000F1EE10FAF9D2B0EE600A704710B5044650
:103EF0002DED028B0846FCF7EEFB00EE104A41EC7C
:103F0000180BB8EEC00AB0EEC00A10EE100AFCF7AB
:103F100012FC53EC182BFCF721FC03D80020BDEC5D
:103F2000028B10BD2046FAE782B0CDE9000121F0F6
:103F3000004001909DED000B02B051EC100B70475A
:103F400070B504462DED088B042004EBC001401E23
:103F5000002891ED081B81ED0A1B11ED021B81ED7C
:103F6000001BF2DCB0EE408AF0EE608A84ED008B3C
:103F7000206D002806DD0020206584ED0A0BBDECD5
:103F8000088B70BD3D4D2869FCF7D5FB94ED121BE5
:103F900053EC112BFCF7BEFA41EC190BE868FCF767
:103FA000CAFB94ED101B53EC112BFCF7B3FA41EC58
:103FB0001A0BA868FCF7BFFB94ED0E1B53EC112BFA
:103FC000FCF7A8FA41EC1B0B6868FCF7B4FB94ED16
:103FD0000C1B53EC112BFCF79DFA53EC1B2BFCF73D
:103FE000F2F953EC1A2BFCF7EEF953EC192BFCF712
:103FF000EAF9143D41EC1B0BA868FCF79CFB94ED1F
:10400000041B53EC112BFCF785FA94ED061B94ED81
:10401000020B41EC1A0B53EC112B51EC100BFCF77B
:10402000D2F941EC190B6868FCF785FB53EC192BAE
:10403000FCF770FA94ED080B41EC190B53EC102BC4
:1040400051EC180BFCF7BFF941EC180B2868FCF792
:1040500072FB53EC182BFCF75DFA53EC192BFCF7B1
:10406000B2F953EC1A2BFCF7AEF953EC1B2BFCF70F
:104070004BFAC4E90A0141EC100B80E78C000020E8
:1040800008494FF47A724888904203D34FF4E162B2
:10409000904200D94A80488803490860091D086099
:1040A00070470000E400002034040040FCF718FFD3
:1040B000FCE7000090ED0A0AB5EEC00AF1EE10FA36
:1040C00001DCB1EE400AD0ED0C0AB4EEE00AF1EEEC
:1040D00010FA02DD9FED030A01E0B7EE000A80ED61
:1040E000030A70470000000070B5FF4CFF4D2DED36
:1040F0000E8B94ED000AD4ED000A20EE20DA94ED48
:10410000000AD4ED010A20EE20BA94ED000AD4EDA5
:10411000020A60EE20AAD4ED000A94ED030A60EED4
:1041200080CA94ED010AD4ED010A60EE20BA94ED44
:10413000010AD4ED020A20EE20CA94ED010AD4ED62
:10414000030A20EE20AA94ED020AD4ED020A60EEE2
:10415000209A94ED020AD4ED030A20EE209A94ED01
:10416000030AD4ED030A60EE208A95ED050A84ED7A
:104170000B0A95ED060A84ED0C0A95ED070A84ED0D
:104180000D0AB5F9000000EE100AB8EEC00A84ED81
:104190000E0AB5F9020000EE100AB8EEC00A84ED6E
:1041A0000F0AB5F9040000EE100AB8EEC00A84ED5B
:1041B000100AB5F9060000EE100AB8EEC00A84ED48
:1041C000110AB5F9080000EE100AB8EEC00A84ED35
:1041D000120AB5F90A0000EE100AB8EEC00A84ED22
:1041E000130AFDF73FFEE061E069A169401A00EEA5
:1041F000100AB8EE400ADFEDBE0A80EE201A84ED08
:10420000141AE069A06194ED0E0AD4ED0E0A94ED43
:104210000F1A20EE200AD4ED0F0A00EE810AD4ED29
:10422000100A94ED101A00EE810A00F0CFFAD4EDD6
:104230000E0A60EE800AC4ED0E0AD4ED0F0A60EE9D
:10424000800AC4ED0F0AD4ED100A20EE800A84ED36
:10425000100A94ED110AD4ED110A94ED121A20EE11
:10426000200AD4ED120A00EE810AD4ED130A94ED6F
:10427000131A00EE810A00F0A9FAD4ED110AB6EE85
:10428000001AB0EE008A60EE800A3CEE6CEA7AEE2C
:104290002A1AC4ED110AD4ED120A60EE800AC4EDA8
:1042A000120AD4ED130A20EE800A71EE690A31EE8B
:1042B0006B1A84ED130A94ED110A70EEE8EA31EE00
:1042C000682A20EE080A71EE69DA60EE2E0A94ED93
:1042D000120A20EE080A40EE0E0A94ED130A20EEB0
:1042E000080A40EE210A94ED110A7CEE2C1A3AEEEF
:1042F0006ACA20EE080A60EEA00A20EE210AD4ED78
:10430000121A61EE881A01EE820AD4ED131A39EE00
:104310004B2A61EE881A01EE820AD4ED111A39EEA9
:104320000B2A61EE881A40EE000A61EE8CCAD4EDC9
:10433000121A10EE900A61EE881A41EE82CAD4ED8C
:10434000131A61EE881A41EEADCAFCF7F4F941EC9C
:10435000100BFFF7A1FB51EC100BFCF717FA7DEEE9
:104360006B0A00EE100A3BEE092A94ED134A70EE38
:10437000E90A20EE081A22EE083A6CEE082A70EEDE
:10438000A83A6CEE880A61EE0E1A21EE2E0A40EE73
:10439000821A3AEE8A2A00EE8C0A21EE022A94ED65
:1043A000101A00EEAD2AD4ED0F0A60EEA30A41EE1A
:1043B000430A94ED121A21EE021A04EE611A94EDEA
:1043C0000E4A30EE811AD4ED100A60EEA20AB5EE64
:1043D000C01A44EE630AD4ED133A94ED114A63EE29
:1043E000803A44EE423A94ED0E2A22EE032A94EDEE
:1043F0000F3A70EEA30A03EE622AD4ED112A62EEA0
:10440000A11AD4ED122A42EEC01A32EE210AF1EEC0
:1044100010FA45D0F5EEC00AF1EE10FA40D0B5EE34
:10442000C00AF1EE10FA3BD094ED052AD4ED141A2F
:10443000D4ED082A21EE023A43EE212A20EE823AF8
:10444000C4ED082AD4ED092A43EE212AC4ED092A35
:1044500060EE022A94ED0A2A02EEA12A84ED0A2ACD
:1044600094ED0B2AD4ED041A01EE812A94ED081A7A
:1044700032EE011A84ED0B1A94ED0C1A01EEA01A1B
:10448000D4ED090A71EE200AC4ED0C0AD4ED0D0A30
:1044900041EE800A94ED0A0A30EE800A84ED0D0A9E
:1044A00094ED010AD4ED0B0A94ED0C1A94ED003A48
:1044B00060EEC00A94ED020AD4ED0D1A40EE410AF6
:1044C00094ED030A94ED0D1A40EE410A94ED140A9E
:1044D00094ED0B1A00EE803AD4ED000A60EE810AEA
:1044E00094ED021A06E000002C010020F03F0020AD
:1044F0000000FA4441EE210A94ED031AD4ED0C1A9F
:10450000D4ED012A94ED022A41EE610A94ED0C1AD1
:10451000D4ED0D1A40EE802AD4ED000A60EE810A37
:1045200094ED011A41EE610A94ED031AD4ED0B1AD1
:1045300041EE210A94ED0D1AD4ED0C1A00EE802AFA
:10454000D4ED000A60EE810A94ED011A41EE210AD1
:1045500094ED021AD4ED0B1A41EE610AD4ED031A60
:1045600040EE801A23EE030A02EEA20A02EE020ACD
:1045700001EEA10A00F02AF963EE000AF8EE008AC3
:10458000B7EE00BAC4ED000A62EE800AC4ED010A7B
:1045900062EE000A21EE800AC4ED020A84ED030AED
:1045A00094ED010AD4ED010A94ED021A20EE280AD6
:1045B00020EE200AD4ED020A60EE880A00EEC10A5D
:1045C00030EE0B0A10EE100AFCF7B5F894ED020A73
:1045D000D4ED030A94ED011A20EE080A41EC190B00
:1045E00020EE200AD4ED000A60EE880A00EE810A6F
:1045F00010EE100AFCF79FF841EC100BB0EE491AD0
:10460000F0EE691AFFF750F99FED4DAB51EC100B2E
:1046100053EC1A2BFBF77EFFFCF7B8F8E86294ED39
:10462000010AD4ED030A94ED021A20EE280A20EEC6
:10463000200AD4ED000A60EE880A00EE810A10EE2E
:10464000100AFCF778F841EC100BFEF711FE9FED15
:104650003E1B51EC100B53EC112BFBF75BFFFCF7EF
:1046600095F8286394ED020AD4ED020A94ED031A3A
:1046700020EE280A20EE200AD4ED030A60EE880A14
:1046800000EEC10A30EE0B0A10EE100AFCF753F8E8
:1046900094ED010AD4ED020A94ED031A20EE080A03
:1046A00041EC190B20EE200AD4ED000A60EE880AD6
:1046B00000EE810A10EE100AFCF73DF841EC100BF9
:1046C000B0EE491AF0EE691AFFF7EEF853EC1A2B28
:1046D00051EC100BFBF71EFFFCF758F800EE100A28
:1046E0001B4885ED0D0A1B4AD0ED050A70EE600AE5
:1046F00010EE901A914202DD8168491E06E010EE2C
:10470000901A154A914202D98168491C816080ED56
:10471000050A81684FF4B472514300EE901AF8EE26
:10472000E00A30EE200A80ED090A95ED0C0A80EDD2
:10473000080A95ED0B0A80ED070ABDEC0E8B70BDE3
:104740006666666666A64C406666666666A64CC089
:10475000484300200000A5430000A5C37FB5802189
:104760006B2000F05FFC6420FDF7DDF90721682075
:1047700000F058FC6420FDF7D6F9752000F0FAFB34
:104780000D4900246D4688700C480FC88DE80F0055
:1047900005EB4400417815F8140000F043FC0120BB
:1047A000FDF7C1F9641CE4B2072CF1D300F026FB3D
:1047B00004B0002070BD000070000020385F0008C9
:1047C000EFF30580002800D00120704710EE100A9A
:1047D000F6EE000A074960EE200AA1EB600000EE49
:1047E000100A20EE801AF7EE080A41EE400A20EE89
:1047F000800A7047DF59375F2DE9F041F7EE000A74
:10480000C1ED070AC1ED080AC1ED090AC1ED0A0AA6
:10481000C1ED0B0AC1ED0C0A0C460546C1ED610A5B
:104820009FEDE60A81ED620A81ED630AC1ED640A3B
:10483000C1ED650A81ED660A84ED670AC4ED680A78
:10484000C4ED690A84ED6A0A84ED6B0AC4ED6C0A52
:10485000C4ED6D0A84ED6E0A84ED6F0AC4ED700A32
:10486000C4ED710A84ED720A84ED730AC4ED740A12
:10487000C4ED750A84ED760A84ED770AC4ED780AF2
:10488000C4ED790A84ED7A0A84ED7B0AC4ED7C0AD2
:10489000C4ED7D0A84ED7E0A84ED7F0AC4ED800AB2
:1048A000C4ED810A84ED820A84ED830AC4ED840A92
:1048B0009FEDC31A04F5806080ED151A80ED160A8D
:1048C00080ED170A80ED180A80ED190A80ED1A0AAA
:1048D00080ED1B0A80ED1C1A80ED1D0A80ED1E0A7A
:1048E00080ED1F0A80ED200A80ED210A80ED220A6A
:1048F00080ED231A80ED240A80ED250A80ED260A3A
:1049000080ED270A80ED320A80ED290A9FEDAD1A6D
:1049100080ED2A1A80ED2B0A80ED2C0A80ED2D0AFD
:1049200080ED2E0A80ED2F0A80ED300A80ED311ADD
:1049300080ED330A80ED340A80ED350A80ED370AC8
:1049400080ED381A9FEDA01A80ED391A80ED3A0AF1
:1049500080ED3B0A80ED3C0A80ED3D0A80ED3E0A89
:1049600080ED3F0A80ED401A80ED410A80ED420A59
:1049700080ED430A80ED440A80ED450A80ED460A49
:1049800080ED471A80ED480A80ED490A80ED4A0A19
:1049900080ED4B0A80ED560A80ED4D0A80ED4E1AEF
:1049A00080ED4F0A80ED500A80ED510A80ED520AE9
:1049B00080ED530A80ED540A80ED551A80ED570AB8
:1049C00080ED580A80ED590A80ED5B0A80ED5C1A93
:1049D000C4EDCD0A84EDCE0A84EDCF0AC4EDD00A31
:1049E00084EDD10A84EDD20A84EDD30AC4EDD40A51
:1049F00084EDD50A84EDD60AC4EDD70A84EDD80A31
:104A000084EDD90A84EDDA0AC4EDDB0A84EDDC0A10
:104A100084EDDD0AC4EDDE0A84EDDF0A84EDEA0AE6
:104A200084EDE10AC4EDE20A84EDE30A84EDE40AD0
:104A300084EDE50A84EDE60A84EDE70A84EDE80AF0
:104A4000C4EDE90A84EDEB0A84EDEC0A84EDED0A8D
:104A500084EDEF0AC4EDF00AC4EDF10A84EDF20A28
:104A600084EDF30A84EDF40A84EDF50A84EDF60A88
:104A700084EDF70AC4EDF80A84EDF90A84EDFA0A28
:104A800084EDFB0A84EDFC0A84EDFD0A84EDFE0A48
:104A9000C4EDFF0A80ED000A80ED010A80ED020AF4
:104AA00080ED030A80ED0E0A80ED050AC0ED060ACE
:104AB00080ED070A80ED080A80ED090A80ED0A0AF8
:104AC00080ED0B0A80ED0C0AC0ED0D0A80ED0F0A97
:104AD00080ED100A80ED110A80ED130AC0ED140A72
:104AE00004F11C030122062105F11C00FBF7C6FBA3
:104AF00004F134030122062105F12400FBF7BEFB7B
:104B000004F14C030122062105F12C00FBF7B6FB52
:104B1000062204F16403114605F16C00FBF7AEFBBD
:104B2000062204F5C273114605F16400FBF7A6FBEB
:104B3000062204F1F403114605F17400FBF79EFB15
:104B4000062204F25443114605F15400FBF796FB8C
:104B5000062204F2E443114605F15C00FBF78EFBEC
:104B6000062205F1340004F54D7311460646FBF7A5
:104B700085FB062205F13C0004F571731146804661
:104B8000FBF77CFB062205F1440004F50573114692
:104B90000746FBF773FB39463046FBF773FB04F51A
:104BA0002973062205F14C0011460446FBF766FB0B
:104BB00021464046BDE8F041FBF764BB0000000021
:104BC000D593A8342AD0F4336666E63F06484FF4FE
:104BD000804142880548B2F57A7F02D00122FDF774
:104BE0003BB90022FBE70000E40000200004024083
:104BF000FDF746F9FEF786F9FDF708FFFDF768FFB8
:104C0000FDF7ACFEFDF790FFFDF7DAFF4FF47A7089
:104C1000FCF789FF00F05AFDFFF728F9FFF79EFD2A
:104C2000FFF730F9FFF74CF9FDF7C6FE00F032FA56
:104C3000FEE701460020842900D0C81C7047000010
:104C400070B50E2268493B2000F0BCF9664901F1BD
:104C50000E04088840BA2080488840BA608088885E
:104C600040BAA080C88840BAA0810889228C40BA86
:104C7000801A00B2E0814A89A38C52BAD21A2282E9
:104C80008989228D49BA891A61820421FFF72EF998
:104C9000E081B4F910000421FFF728F92082B4F96B
:104CA00012000421FFF722F96082B4F90E00FBF72D
:104CB00012FD41EC100B04F5BA70FFF741F951EC0D
:104CC000100BFBF719FDE081B4F91000FBF703FDB1
:104CD00041EC100B04F5E670FFF732F951EC100BC4
:104CE000FBF70AFD2082B4F91200FBF7F4FC41EC5B
:104CF000100B04F50970FFF723F951EC100BFBF7CB
:104D0000FBFC6082B4F90000FBF7E5FC41EC100B02
:104D100004F51F70FEF7DAFF51EC100BFBF7ECFC0B
:104D20002080B4F90200FBF7D6FC41EC100B04F52F
:104D30003570FEF7CBFF51EC100BFBF7DDFC60800C
:104D4000B4F90400FBF7C7FC41EC100B04F54B7001
:104D5000FEF7BCFF51EC100BFBF7CEFCA080234804
:104D6000B4F912109FED221A4160A4F11C0000F169
:104D70001C0248302CCA80E82C00B4F90C0000EE6C
:104D8000100A04F12C00F8EEC00A80EE810AF3EE5E
:104D9000050A30EE200A80ED030AB4F90E2000EE79
:104DA000102AF8EEC00A9FED130A80EE801ADFED9C
:104DB000120AC1EE201AC0ED051AB4F9102001EE56
:104DC000102AF8EEC11A81EE801AC1EE201A01EE07
:104DD000101AC0ED061AF8EEC11A81EE801A81EEA3
:104DE000200A80ED070A70BDB63F00207000002049
:104DF0005CEFA6436F128341333365422DE9F84FD0
:104E00005A4F5B4C387901287ED0002558490E2234
:104E10000E393B2000F0D6F80520FCF784FE6D1C0F
:104E2000642DF3DBDFF848910026A9F10E0909F1A2
:104E3000720505F1080005F1600B05F1B80A4FF4A1
:104E4000967800904A490E220E393B2000F0BAF8BD
:104E5000B9F800206069494652BA10FA82F06061E0
:104E6000B9F80220A06952BA10FA82F0A061B9F82C
:104E70000420E06952BA10FA82F0E061B9F8080043
:104E800040BA00B228804A8952BA6A80B9F80C1038
:104E900049BAA980FBF71FFC41EC100B0098FFF703
:104EA0004FF851EC100BFBF727FC2880B5F90200F6
:104EB000FBF711FC41EC100B5846FFF741F851ECA1
:104EC000100BFBF719FC6880B5F90400FBF703FC35
:104ED00041EC100B5046FFF733F851EC100BFBF789
:104EE0000BFC00B2A880B5F90020216A11442162B0
:104EF000B5F90220616A11446162A16A0844A062A6
:104F00000520FCF710FE00E021E0761C464599DB09
:104F10006169404691FBF0F16161A16991FBF0F19B
:104F2000A161E16991FBF0F1E161216A91FBF0F28D
:104F30002262616A91FBF8F16162A36A93FBF8F067
:104F4000A06227F8052F7980B880BDE8F88F00208F
:104F5000387137F9050F2062B7F902006062B7F9BE
:104F60000400A062BDE8F84F00F0F2BB58470020F3
:104F7000C43F0020F8B5104E0446002210213046F0
:104F8000FCF76AFF44F080000C4C3725621C20704F
:104F90000123511E0A480095FDF7C8FA621C01233F
:104FA000511E07480095FDF7C1FA01221021304635
:104FB000FCF752FF6078F8BD00000240700000204E
:104FC000E8010020F8B5134C15460E4607460022AE
:104FD00010212046FCF740FF0F4847F0800237279A
:104FE00002700E48012302700B4A0D48521C511EDC
:104FF0000097FDF79BFA2B46324608490848009770
:10500000FDF794FA012210212046FCF725FF00202D
:10501000F8BD00000000024070000020A83F002002
:10502000E8010020F8B5114D0E460446002210217B
:105030002846FCF711FF04F07F000D4C3727621C57
:1050400020700123511E0B480097FDF76FFA267060
:10505000621C0123511E07480097FDF767FA0122E1
:1050600010212846FCF7F8FE0020F8BD00000240A1
:1050700070000020E801002010B500B9012000F008
:10508000CFFC002010BD10B501B9012100F0EEFCED
:10509000002010BD10B500F031FD002010BD10B58E
:1050A000FFF78EFB18B1BDE8104000F059BEBDE817
:1050B000104000F04FBE10B500F03EFE012803D0B6
:1050C000BDE8104000F0F6BD10BD3EB504460D46EB
:1050D000B0F90800FFF7ADFD02A9CDE90001208A73
:1050E0002B4682B2D4E9001000F0FAFD012801D06D
:1050F00000203EBD02983EBD00B580ED060AC0ED21
:10510000070A70EEC00A0146C0ED0A0A006D10B130
:1051100001283CD069E091ED0B0A70EE200AC1ED48
:105120000B0A91ED0C0AF4EEC00AF1EE10FA06DC5F
:10513000B1EE401AF4EEC10AF1EE10FA01D281ED9F
:105140000B0A0846FEF7B6FF91ED000A91ED0A1A28
:1051500020EE010A81ED0D0AD1ED010AD1ED031A0D
:1051600060EEA10AD1ED0B1A60EEA10AC1ED0E0AA4
:10517000D1ED091A30EE200A31EE611AD1ED021A92
:1051800021EE211A81ED0F1A30EE010A2BE091ED8C
:10519000091AD1ED001AB0EE002A30EEC11A20EE45
:1051A000020AF0EE082A21EE211A81ED0D1AD1ED46
:1051B000011A61EEA00AC1ED0E0A91ED052AD1EDAA
:1051C000021A71EE200A02EE620A91ED042A30EE14
:1051D000020A20EE210A81ED0F0A30EEC00AD1ED5D
:1051E000100A30EE200A81ED100A91ED090A01F152
:1051F000400081ED080A91ED0A0A81ED090A91ED5E
:10520000050A81ED040A91ED060A81ED050A91ED8A
:10521000120A5DF804EBFEF745BD80EC030A016558
:10522000C0ED0C1A80ED122AC0ED132A704700EE73
:10523000101A10B5F8EEC00A00EE102A0446C0EDB0
:10524000060AB8EEC00A80ED070A30EEC00A80ED0B
:105250000A0AD0ED090A90ED001A70EE600A60EEBD
:10526000810AC0ED0D0A90ED011A04F1400021EE13
:10527000000A84ED0E0A30EE800AD4ED100A30EEFA
:10528000200A84ED100A94ED120AFEF70BFD94ED4E
:105290000A0A84ED090A94ED100ABDEEC00A10EE68
:1052A000100A00B210BD00002DE9F041184E0F4663
:1052B0000446F5683068001D00F0D2FA38B930684D
:1052C00090F82C1001208840316981433161601CC5
:1052D00007D137B13168BDE8F0410E48091D00F033
:1052E000F7BA30682C44AC424460316805D2B06BE8
:1052F000BDE8F041091D00F0D3BA706B091D00F044
:10530000CFFAB06A844200D2B462BDE8F0810000F6
:1053100034000020943F00202DE9F041054600F0C4
:10532000E3FA2E4EB068401CB06030682C4F10B1CC
:10533000706940B32DE03560B068012829D10024A0
:1053400004EB840007EB800000F09CFA641C072C3F
:10535000F6D323488C3000F095FA2148A03000F0B5
:1053600091FA1F48B43000F08DFA1D48C83000F0A3
:1053700089FA1B48DC3000F085FA19488C307063DC
:105380001430B06305E03068E96AC06A884200D82A
:105390003560706A0121401C7062E86A32698140A0
:1053A0001143316100EB800007EB8000291D00F004
:1053B0008FFA00F0B9FA706900280CD03068E96AF9
:1053C000C06A884207D207494FF080500860BFF397
:1053D0004F8FBFF36F8FBDE8F081000034000020D5
:1053E000B83E002004ED00E070B5124E124D1CE0F6
:1053F00000F0B8FB306820B1002400F01DFDA4B916
:1054000001E00124F9E700F06FFAF068C468201D9C
:1054100000F026FAA868401EA8606868401E686010
:1054200000F082FA204600F009F868680028DFD111
:1054300070BD0000803F00203400002010B50446FD
:10544000006B00F085FA2046BDE8104000F080BAFD
:1054500010484FF47051420706D0C01D0D4920F08E
:105460000700411AC1F570510B4A00230144C2E9FB
:1054700000030839103A21F0070111604B600B60FE
:105480000B1AC0E9001393604FF000405360D060E6
:1054900070470000B802002020000020074E4FF0A7
:1054A0008054074DFFF7A0FF30680128FAD92C601F
:1054B000BFF34F8FBFF36F8FF4E70000B83E0020BB
:1054C00004ED00E02DE9F0470E46DDE909841746BA
:1054D000824691009946089DA522206BFAF761FF4C
:1054E0006FF00301206B01EB8701084420F00707F0
:1054F000780707D0502080F31188BFF34F8FBFF398
:105500006F8FFEE72218315C82F83410315C11B1E4
:10551000401C1028F6D3002684F84360072D00D3E2
:105520000625E562C4E91156201D00F0B6F904F124
:10553000180000F0B2F92461C5F107006462A061AF
:10554000E66484F850604A465146384600F0DAF87E
:105550002060B8F1000F01D0C8F80040BDE8F08726
:1055600030B5114900E011460A688242FBD34B680E
:105570005C18844203D14068184448600846436878
:105580001C18944209D1084C103C2468A24209D04E
:1055900052681A4442600A6812680260814200D070
:1055A000086030BD0460F9E7200000200648416B28
:1055B000096829B1416BC968C96849688162704747
:1055C0004FF0FF31FAE7000034000020084840683F
:1055D000401C4FF0500080F3118804D0BFF34F8F70
:1055E000BFF36F8FFEE7BFF34F8FBFF36F8FFEE701
:1055F000280000202DE9F0410546002600F0B2FA0F
:10560000314F386808B9FFF723FFF86805424BD1DE
:10561000C5B3083568070ED005F00700C0F10800D3
:105620000544680707D0502080F31188BFF34F8FDF
:10563000BFF36F8FFEE72DB37868854234D82249D7
:1056400010310846046801E0214604466068A8421B
:1056500002D220680028F7D13868844224D00E682E
:105660002068086060680836411B10290FD960194E
:10567000420708D0502080F31188BFF34F8FBFF34B
:105680006F8FFEE710E041606560FFF769FF6168BA
:105690007868401A7860BA68904200D2B860F868BA
:1056A00001430020C4E9000100F0C6FB700707D0E9
:1056B000502080F31188BFF34F8FBFF36F8FFEE749
:1056C0003046BDE8F08100001000002010B5042134
:1056D0000A48FDF725F900210848FDF721F90021C6
:1056E0000748FDF71DF905494FF47A700A685063C1
:1056F0000968886302490968486310BD40020020B8
:105700007C02002010B5031F4FF080741C601B1F2B
:1057100021F001011960191F044B0B6014390A6054
:10572000091F6FF0020244380A6010BDCD55000811
:10573000054841790548012903D040F2C261016062
:1057400070474FF49661FAE7A44600203408004001
:1057500010B500F0C9F810210348FBF787F9BDE840
:10576000104000F0E1B8000058470020F0B4124BA0
:1057700040F2FF141D6B2C601D6B0024AC601D6B90
:10578000EC601E6B082535611E6B0D0A35751D6BAF
:1057900069751D6B010AA975196BC875196B100A1B
:1057A0000876186B0A214276186B8476186BC476DB
:1057B000F0BC1846FCF7DAB8A4010020084810B580
:1057C00002880848B0F902100748FFF730FD00EEE4
:1057D000100A0348B8EEC00A001F80ED000A10BD91
:1057E000E4000020C800002004440020FDF748FB2E
:1057F000FCE700B52DED048B83B041EC190BFBF7F2
:10580000A6F841EC180B18EE100A18EE901A8DED60
:10581000008B002818BF0120084320F00040C0F191
:105820007F6000F1E040C00F14D019EE101A19EE9D
:10583000900A8DED009B002918BF0121084320F03C
:105840000040C0F17F6000F1E040C00F04BF0120C4
:10585000FEF722FA51EC180B03B0BDEC048B00BD2F
:10586000D0E9013201699A60D0E901235A604A689F
:10587000824201D182684A60002202610868401EAB
:105880000860704700F108014FF0FF32C0E90112D3
:10589000C160016100210160704700210161704712
:1058A00030B50C68621C02D000F1080202E0026907
:1058B00004E01A4653681D68A542FAD953684B6044
:1058C00099608A60516008610168491C016030BDBF
:1058D00042684A6093688B60936859609160086180
:1058E0000168491C01607047502080F31188BFF3A4
:1058F0004F8FBFF36F8F0A494868401C48600128EA
:105900000CD10848006810F0FF0F07D0502080F33A
:105910001188BFF34F8FBFF36F8FFEE77047000012
:105920002800002004ED00E00849486828B1401E26
:10593000486001D180F311887047502080F31188AE
:10594000BFF34F8FBFF36F8FFEE7000028000020EA
:1059500070B5002827D0144DA0F108046068E968EC
:10596000084207D1502080F31188BFF34F8FBFF357
:105970006F8FFEE722683AB1502080F31188BFF3A1
:105980004F8FBFF36F8FFEE78843606000F0EAF847
:1059900060686968084468602046FFF7E1FDBDE87B
:1059A000704000F049BA70BD1000002006484FF466
:1059B0007A710068B0FBF1F14FF0E020491E4161BF
:1059C0000721016170470000DC00002010B5FAF7E4
:1059D0003FFC114910280ED300F1E02090F8F003AD
:1059E0000A78904207D2502080F31188BFF34F8F7E
:1059F000BFF36F8FFEE709480068896800F4E06034
:105A0000884207D9502080F31188BFF34F8FBFF32E
:105A10006F8FFEE710BD0000280000200CED00E0B5
:105A200010B5020014D00F48006B38B1502080F33D
:105A30001188BFF34F8FBFF36F8FFEE700F092F82E
:105A400000211046FFF730FC00F0F6F9002807D1DE
:105A500005494FF080500860BFF34F8FBFF36F8F41
:105A600010BD00003400002004ED00E070B50E46CB
:105A700005004FF000030BD096B11E4A106BB8B171
:105A8000502080F31188BFF34F8FBFF36F8FFEE775
:105A9000502080F31188BFF34F8FBFF36F8FFEE765
:105AA000502080F31188BFF34F8FBFF36F8FFEE755
:105AB00000F058F8D2682C68A119944202D98C429F
:105AC00002D804E08C4201D8914200D90123296018
:105AD0001BB1881A0021FFF7E7FB00F0ADF90028A1
