:020000040800F2
:10000000B84B00207D020008AF36000869310008B7
:10001000AD3600085D0A0008AD3E00080000000093
:10002000000000000000000000000000C101000806
:10003000890F000800000000150200083B39000885
:10004000970200089702000897020008970200082C
:10005000970200089702000897020008970200081C
:10006000970200089702000897020008970200080C
:100070002D0D000897020008390D000897020008AE
:10008000450D0008510D0008970200086D0A000890
:10009000610A00089702000897020008970200080A
:1000A00097020008970200089702000897020008CC
:1000B00097020008970200089702000897020008BC
:1000C00097020008970200089702000897020008AC
:1000D00097020008593E0008713E0008893E00085A
:1000E000970200089702000897020008970200088C
:1000F000970200089702000897020008970200087C
:10010000970200089702000897020008970200086B
:10011000970200089702000897020008970200085B
:10012000970200085D0D0008690D0008970200089D
:10013000970200089702000897020008850A000845
:10014000790A000897020008970200089702000841
:1001500097020008750D000897020008A13E0008EC
:10016000970200089702000897020008970200080B
:10017000970200089702000897020008000000009C
:1001800097020008970200089702000897020008EB
:1001900097020008970200089702000897020008DB
:1001A000000000000000000097020008DFF80CD0FB
:1001B00000F008FB00480047B94E0008B84B00208B
:1001C0002B4B19680868B0E8F04F80F30988BFF33B
:1001D0006F8F4FF0000080F311887047000000001F
:1001E00006480068006880F3088862B661B6BFF30D
:1001F0004F8FBFF36F8F00DF00BF00BF08ED00E03F
:10020000DFF80C00016841F470010160704700BF25
:1002100088ED00E0EFF30980BFF36F8F144B1A688D
:100220001EF0100F08BF20ED108A20E9F04F10607B
:1002300008B44FF0500080F31188BFF34F8FBFF325
:100240006F8F05F035FD4FF0000080F3118808BC7A
:1002500019680868B0E8F04F1EF0100F08BFB0EC46
:10026000108A80F30988BFF36F8F704700BF00BF0B
:10027000A8000020EFF30580704700000648804783
:1002800006480047FEE7FEE7FEE7FEE7FEE7FEE77B
:10029000FEE7FEE7FEE7FEE7F1390008AD010008E2
:1002A0002DE9F05F0546002092469B4688460646AB
:1002B000814640241BE0284641464746224600F03E
:1002C000CBF953465A46C01A914110D311461846ED
:1002D000224600F0B2F92D1A67EB01084F4622467C
:1002E0000120002100F0A9F917EB00094E41201E62
:1002F000A4F10104DFDC484631462A464346BDE806
:10030000F09F40EA01039B0703D009E008C9121FD0
:1003100008C0042AFAD203E011F8013B00F8013BBF
:10032000521EF9D27047D2B201E000F8012B491EEB
:10033000FBD270470022F6E710B513460A46044682
:100340001946FFF7F0FF204610BD2DE9FE4F80460D
:1003500081EA0300C00F0C46009021F0004123F019
:100360000045B8EB0200A94105D24046214690461F
:100370001C460B46024623F00040104347D0270D91
:10038000C7F30A00C3F30A510290401A01904028B3
:100390006BDAC3F3130040F4801B0098924620B13F
:1003A0000023D2EB030A63EB0B0B01985946C0F113
:1003B0004002504600F041F906460D465046594667
:1003C000019A00F059F910EB08006141002487EA16
:1003D000115284EAE7731A4340D0009A62B3019A3B
:1003E000012A4FEA075215DC001B61EB02014FF0B6
:1003F000004202EA0752CDE90042001C41F580119B
:1004000032462B4600F090F903B0BDE8F08F40462D
:100410002146F9E7001B61EB0201001C41F5801346
:1004200000185B412018A2F5001747EB030140EAD2
:10043000D570B6196D4111E06D084FEA360645EAF0
:10044000C0754FEA0752001B61EB0201001C41F529
:10045000801149084FEA30000019514132462B46BD
:1004600003B0BDE8F04F00F050B900980122400001
:100470000023D0EB020263EBE073009821464FEAC1
:10048000E074B8EB000061EB0401E9E783F000439E
:100490005BE781F0004158E72DE9FE4F81EA030454
:1004A00004F0004421F0004100944FF0000B23F0D1
:1004B000004350EA01045ED052EA03045BD0C3F368
:1004C0000A54C1F30A552C44A4F2F3340194A0FB5E
:1004D0000254C1F3130141F48011C3F3130343F435
:1004E000801301FB024400FB034E840A970A44EA8E
:1004F000815447EA8357A4FB076802958D0A05FBE0
:1005000007854FEA932C04FB0C542705029D4FEA04
:10051000065847EA1637B5EB08056EEB070C870E51
:10052000920E47EA811742EA8312A7FB0201B6EB5B
:100530000B0164EB00042B0D43EA0C335E1844EB13
:100540001C50DA465146E7FB0201C5F313044FEA9B
:100550000B3343EA14534FEA0432019C43EA060387
:10056000A4F10C040294009CCDE900B400F0DCF886
:1005700003B0BDE8F08F00200146F9E70EB5C10FCA
:1005800080EAE0700844CA07002140F233438DE856
:100590000E000A460B4600F0C7F803B000BD70B568
:1005A000C1F30A5201F000450024C1F3130140F2E7
:1005B000FF3341F480119A4201DA002070BD40F20D
:1005C00033439A42A2F2334203DC524200F044F831
:1005D00000E090402C43F1D0404270BD00F000425A
:1005E00030F000400AD0C10D01F56071C0F3160073
:1005F00042EA0151C20840071143704700200146FA
:10060000704701F0004330B421F0004150EA01028C
:1006100006D00A0DA2F56072C1F31301002A02DCB4
:1006200030BC00207047440F44EAC104C100E01808
:1006300030BC00EBC25000F031B8202A04DB203A75
:1006400000FA02F1002070479140C2F1200320FA25
:1006500003F3194390407047202A04DB203A21FA23
:1006600002F00021704721FA02F3D040C2F12002CB
:100670009140084319467047202A06DBCB17203AE1
:1006800041FA02F043EAE07306E041FA02F3D04097
:10069000C2F1200291400843194670470029A8BFC3
:1006A0007047401C490008BF20F00100704710B49B
:1006B000B0FA80FC00FA0CF050EA010404BF10BC50
:1006C000704749B1CCF1200421FA04F411FA0CF17D
:1006D00018BF012121430843A3EB0C01CB1D4FEAB6
:1006E00000614FEA102042BF002010BC704700EBB1
:1006F000C35010440029A4BF10BC7047401C4900DF
:1007000008BF20F0010010BC704710B5141E73F133
:10071000000408DA401C41F1000192185B411A43C1
:1007200001D120F0010010BD2DE9F04D92469B460D
:1007300011B1B1FA81F202E0B0FA80F220329046B3
:10074000FFF77BFF04460F4640EA0A0041EA0B012F
:1007500053465A46084313D0114653EA010019D0B4
:10076000C8F140025046FFF777FF05460E46504657
:1007700059464246FFF761FF084305D0012004E0D7
:1007800020463946BDE8F08D0020054346EAE07674
:100790002C4337430A986305E40AA0EB08000022C3
:1007A000FD0A44EA47540A3002D500200146E9E731
:1007B000010510196941DDE9084500196941BDE8E5
:1007C000F04DA2E7064C074D06E0E06840F001035B
:1007D00094E8070098471034AC42F6D3FFF7EAFCE0
:1007E00070680008906800082DE9F04D81EA030464
:1007F00004F0004B21F0004514464FF0000A23F0AE
:10080000004150EA050220D054EA01021DD0C5F390
:100810000A570246C5F31303C1F31300C1F30A5686
:1008200040F4801543F48013A7EB0608101BD6464E
:1008300008F2FD3873EB050002D308F1010801E06E
:1008400092185B41B8F1000F03DA00200146BDE8C1
:10085000F08D00204FF48011064684460EE0171BF1
:1008600073EB050705D3121B63EB050306434CEA44
:10087000010C49084FEA300092185B4150EA010729
:10088000EDD152EA030012D082EA040083EA0501A6
:10089000084305D0101BAB4106D20122002306E01D
:1008A00000224FF0004302E06FF0010253101AEBF8
:1008B00006004CEB085110EB0A0041EB0B01BDE8C0
:1008C000F04DFFF722BF0EB540F2334102910021F7
:1008D000CDE900110A460B46FFF726FF03B000BD25
:1008E000454910B54A6822F440324A604A68436874
:1008F0001A434A6001684A6822F480724A600168BB
:100900004A68036942EA03224A6001684A6822F0A1
:1009100040724A6001684A6883681A434A60016805
:100920008A6822F400628A6001688A68C3681A4390
:100930008A60816A6FF07062D14201688A6822F031
:1009400070628A6001688A680CD0836A1A438A6080
:1009500001688A6822F040528A6001688A68C36A26
:100960001A4301E022F040528A6001688A6822F04E
:1009700002028A6001688A68836942EA43028A60E7
:10098000016A002901684A680FD042F400624A6097
:1009900001684A6822F460424A6001684A68174C5C
:1009A000436A04EB43331A4301E022F400624A60D5
:1009B0000168CA6A22F47002CA620168CA6A838B3B
:1009C0000F4C04EB03531A43CA6201688A6822F48D
:1009D00000728A6001688A68036B42EA43228A6077
:1009E00001688A6822F480628A6001688A684069C6
:1009F00042EA8020886010BD0023014000E0FFFF34
:100A00000000F0FFF0B5134C064685B00D462046B9
:100A100000F0E0FB074601F0DBFC00200090022024
:100A200004900120CDE902700B49684601F03AFCC0
:100A30000028F9D107E0002332782146184601F05A
:100A400089FC641C761C6D1EF5D201F079FC05B0A2
:100A50000020F0BD00000E085C000020FEE7000052
:100A6000014800F079BE00007C060020014800F03B
:100A700073BE00007C060020014800F06DBE00003F
:100A8000C0060020014800F067BE0000C00600203C
:100A900010B5002958D0826B4FF4D873046803EB6B
:100AA0000113E45814F0040494600468E4584DD031
:100AB000E40854600468E35803F00203D3604FF481
:100AC000DA73046803EB0113E45804F00F041461B3
:100AD00011620468E358C3F30723D3614FF4DC7356
:100AE000046803EB0113E45814750468E458240AFD
:100AF00054750468E458240C94750468E3581B0E7C
:100B0000D3754FF4DE73046803EB0113E4581476D5
:100B10000468E458240A54760468E458240C947653
:100B20000468E3581B0ED3760368202289B11A614A
:100B30000268536923F05003536190F83C20222A45
:100B40000DD0322A0BD00FE0426BA5E7640D146084
:100B5000B0E7DA600268536923F00A03ECE7026841
:100B6000536923F40F43536112220123002990F8A3
:100B70003C1006D0522915D0622916D0722906D110
:100B800015E042290ED0622908D0722908D080F8D9
:100B90003C3000BF01F068F8002010BD322107E0B2
:100BA000522105E080F83C20F4E7222100E04221B8
:100BB00080F83C10EEE700002DED028B82B0F3EEE2
:100BC0000E2ADFED4E8AF1EE041A0121B0EE682AFA
:100BD0009FED4B8A4B48B0EE481AF0EE480AB0EE53
:100BE000480A04F021FB4748F3EE0E2AB0EE682ACB
:100BF000F1EE041A0121B0EE481AF0EE480AB0EE08
:100C0000480A543004F010FB3E48F3EE0E2AB0EED2
:100C1000682AF1EE041A0121B0EE481AF0EE480AF3
:100C2000B0EE480AA83004F0FFFA3648F3EE0E2A78
:100C3000B0EE682AF1EE041A0121B0EE481AF0EE87
:100C4000480AB0EE480AFC3004F0EEFA2E48F3EE03
:100C50000E2A9FED2E2AF1EE041A90EC030A0021D1
:100C60002B4804F0E1FA04F0B4F9264D294E05F5BD
:100C7000EE74294F9FED298ADFED298ACDF8000017
:100C800004F0D2FD70892080B0896080F089A08056
:100C9000308AE080B7F9020000EE100AB8EEC00A10
:100CA00020EE080A20EE280A84ED020A04F05AF920
:100CB00004F078FA95ED4F0ABDEEC00A10EE100A66
:100CC00095ED3A0A03B2BDEEC00A10EE100A95ED9A
:100CD000250A02B2BDEEC00A10EE100A95ED100A08
:100CE00001B2BDEEC00A10EE100A00B204F026FDFB
:100CF00020730A21684604F060F9C1E70060EA4504
:100D000000000000E80000200C00002000C0DA45D0
:100D1000380200201606002004060020000080395A
:100D2000DB0F4940FFF748FFFCE70000014801F0F6
:100D300011B9000024090020014801F00BB900009E
:100D400084090020014801F005B900006408002072
:100D5000014801F0FFB80000C4080020014801F07C
:100D6000F9B80000E4090020014801F0F3B80000E0
:100D700004080020014801F0EDB80000440A0020FA
:100D800001681823CAB2103AB2FBF3F2054B6FF3B5
:100D90000901032A9B5CC36500D9091D81650846CA
:100DA000704700000867000810B5014600208B69F5
:100DB0008A6A4FF0C07453B1B3F5005F15D072B1B9
:100DC000012A0CD0022A0AD0032A09D104E01AB160
:100DD000012A06D0022A03D1C96AC90100D501201F
:100DE00010BDC96AA142FAD010BD002AF7D0012A6D
:100DF000F2D0022AF3D0032AF3D010BD30B5046834
:100E0000256825F480252560046863608368402B8D
:100E1000036803D099600068C26030BD9A600068C2
:100E2000C16030BD70B50C460188C1F30A01218054
:100E300041788278C90841EA4211C1F30A01618010
:100E40008178C278890941EA8201027941EA8221E6
:100E5000C1F30A01A18001794279490841EAC2112E
:100E6000C1F30A01E1804179890921764179C1F311
:100E700001116176C188A1830189E18341892184BF
:100E8000017B84F82210417B84F82310C089A08460
:100E9000204602F086F92A48B4F91C60026881688D
:100EA00006FB01220260B4F91E50426805FB0121D5
:100EB00041602088A0F58060FFF760FB9FED211B5B
:100EC00053EC112BFFF7E8FAFFF79BFBA06060885B
:100ED000A0F5806000EB4000800000EE100AB8EE44
:100EE000C00A84ED030AA088A0F58060FFF746FBE6
:100EF0009FED161B53EC112BFFF7CEFAFFF781FB8A
:100F00002061E088DFED130AA0F5806000EE100A92
:100F1000B8EEC00A20EE200AF9EE0C0A84ED050AAC
:100F200000EE106AB8EEC00A20EE200A84ED120A24
:100F300000EE105AB8EEC00A84ED130A70BD00002E
:100F40004400002066666666666622400000000077
:100F5000000004C0CDCCCC3D094A002009491378DB
:100F6000012B0AD00A88521C92B20A800449C91D7A
:100F7000022A00D201200870704710700880704764
:100F8000180000202C030020704703F0DDFDFCE773
:100F9000002229B101291DD002291ED04FF4407230
:100FA0000B2800D9001D0E490B6823F440730B6019
:100FB0000B6813430B600A6822F0F8020A600A68A3
:100FC000022303EBC00002430A60086840F480304B
:100FD000086070474FF48072E2E74FF40072DFE779
:100FE000103C02401348016889050FD5016821F4BF
:100FF00000710160016841F400610160016821F441
:1010000000610160016841F40071016001684905F7
:101010000FD5016821F480610160016841F48051BD
:101020000160016821F480510160016841F4806130
:1010300001607047003C02400E4A136823F440737D
:10104000136003290DD0012911680FD041F400412C
:10105000116011684FF4803343EA002001431160AE
:101060007047116848F204031943F1E741F00401A5
:10107000EEE70000103C0240064A136823F4407378
:10108000136013681360136843F001031360017069
:1010900070470000103C0240084910B50C6824F469
:1010A00040740C600C6844F440740C600C6844F0AC
:1010B00001040C600260436010BD0000103C02405F
:1010C000074A136823F440731360136843F4807372
:1010D0001360136843F00103136001807047000040
:1010E000103C0240074A136823F4407313601368EE
:1010F00043F400731360136843F00103136001604D
:1011000070470000103C02401C490868C2061C4899
:1011100005D5C26942F01002C26110220A600A6855
:10112000920605D5C26942F00802C26120220A6017
:101130000A68520605D5C26942F00402C261402223
:101140000A600A68120605D5C26942F00202C2614D
:1011500080220A600A68D20506D5C26942F00102FF
:10116000C2614FF480720A600A68920705D5C269AD
:1011700042F02002C2610220086070470C3C02402D
:10118000A40A002070B5114904460020C86101F08E
:1011900021FA06460E4D09E0601C07D024B101F08B
:1011A00019FA801BA04201D9032070BD2868C00332
:1011B000F2D42868C00701D001202860286810F404
:1011C000F970F2D0FFF7A0FF012070BDA40A002043
:1011D0000C3C02400021A0F100634FF48042934296
:1011E00042D3224B0344934201D201213CE0204BE5
:1011F0000344934201D2022136E01E4B0344934242
:1012000001D2032130E01C4A0244B2F5803F01D2F2
:10121000042129E0194A83184FF40032934201D285
:10122000052121E0164B0344934201D206211BE025
:10123000144B0344934201D2072115E0124B03449F
:10124000934201D208210FE0104B0344934201D294
:10125000092109E00E4B0344934201D20A2103E025
:101260000C4A904200D30B210846704700C0FFF79C
:101270000080FFF70040FFF70000FFF70000FEF7D7
:101280000000FCF70000FAF70000F8F70000F6F79E
:101290000000F4F700000E0810B558B1084C491EC4
:1012A0000BD310F8013B5340DBB234F8133083EA20
:1012B0001222F4E74FF6FF7010BD104610BD00007B
:1012C0007864000810B5054C04E000BF10F8013B3D
:1012D0005340E25C491EF9D2104610BD7863000805
:1012E00008B503F0F5FB03F074FE009003F002FC78
:1012F00003F054FC0721684603F05FFEF6E7FFF7B2
:10130000EFFFFCE778B50024009490F83C20012A18
:1013100019D0012280F83C200A6807230568092AB1
:1013200013D9EE680A3A02EB420293409E43EE6004
:101330000A788B680A3A02EB420293400268D56849
:101340002B43D36010E0022078BD2E6902EB4202ED
:1013500093409E432E610A788B6802EB42029340D1
:10136000026815692B4313614A681F23072A13D2A9
:1013700005686E6B521E02EB820293409E436E63C1
:101380000B790A885B1E92B203EB83039A400368D1
:101390005D6B2A435A6327E005680D2A12D22E6B33
:1013A000D21F02EB820293409E432E630B790A8880
:1013B000DB1F92B203EB83039A4003681D6B2A4341
:1013C0001A6311E0EE6A0D3A02EB820293409E43EB
:1013D000EE620B790A880D3B92B203EB83039A40CD
:1013E0000368DD6A2A43DA62174B0568154A9D4295
:1013F00006D10D68122D03D1556845F4800555605E
:1014000005689D4219D1114D0B68AB4201D0112BDB
:1014100013D1536843F4000353600968A9420CD107
:101420000B490C4A0968B1FBF2F101EB810149005B
:1014300000E0491E00910029FBD180F83C400020CB
:1014400078BD000000230140002001401200001080
:101450007C00002040420F00006C70470068C06CA8
:10146000704770B504004FF0000503D0206C0026D3
:1014700010B107E0012070BD666484F83C6020462E
:1014800000F01AF8206CC00610D4206C20F48850AC
:1014900040F0020020642046FFF722FA6664206CC8
:1014A00020F0020040F00100206400E0012584F8F3
:1014B0003C60284670BD000000B500680C4987B04C
:1014C000884212D10B480021026842F48072026007
:1014D000006800F480700590012000900320CDE9A1
:1014E00001016946044800F089FF07B000BD000013
:1014F0000020014044380240000002402DE9F04144
:10150000044600680D4681684FF0000749050BD579
:101510008068C00508D5206C40F02000206484F865
:101520003C700120BDE8F08101F054F806460FE060
:10153000681C0DD025B101F04DF8801BA84207D9D9
:10154000206C40F00400206484F83C700320E9E73C
:10155000206800688007EBD521686FF012000860F2
:10156000206C40F4007020642068816811F0405FB6
:1015700013D1A16989B9C16A11F4700F02D08068D2
:1015800040050AD4206C20F480702064206CC004D4
:1015900003D4206C40F0010020640020C2E700006A
:1015A00018B50021009190F83C20012A07D00122B3
:1015B00080F83C2002689368DB0702D011E002202B
:1015C00018BD936843F001039360204A204B1268D2
:1015D000B2FBF3F202EB420200E0521E0092002A3C
:1015E000FBD102689368DB072DD0036C40F20164E5
:1015F000A34343F48073036453685B0505D5036C10
:1016000023F4005343F480530364036CDB0404D5D8
:10161000436C23F00603436400E0416480F83C100F
:101620000C496FF02203136049680068C90602D0B4
:101630000949884207D1816811F0405F03D1816870
:1016400041F080418160002018BD00007C00002036
:1016500040420F00002301400020014010B5087DEA
:10166000012282403A48D0F8003243F00103C0F82A
:101670000032D0F8003223F47C53C0F80032D0F8A6
:1016800000324C6A43EA0423C0F80032D0F81C321E
:101690009343C0F81C32CB69B3B9D0F80C329343F2
:1016A000C0F80C328C894B6864F31F434C6900EB23
:1016B000C404C4F840320C890B6864F31F434C69BE
:1016C00000EBC404C4F84432CB69012B16D1D0F826
:1016D0000C321343C0F80C320C884B6864F31F4380
:1016E0004C6900EBC404C4F840320C89CB6864F345
:1016F0001F434C6900EBC404C4F844328B69002BCF
:10170000D0F8043205D01343C0F804320B6913B18A
:1017100006E09343F8E7D0F814329343C0F814324C
:101720000B69012B04D1D0F814321343C0F81432E2
:10173000096A012904D1D0F81C121143C0F81C1207
:10174000D0F8001221F00101C0F80012002010BDF5
:1017500000640040704700002DE9F0410446006835
:101760000026C168C1F300134169C1F3C002102112
:1017700013B10AB14E01C160206802694369C2F326
:101780000012C3F380131AB113B146F480660161ED
:10179000216848694FF00105C043C0074ED18A68EF
:1017A0007648904323D000208B68754A9A4320D016
:1017B00000228F68734BBB431DD000231043184396
:1017C0003CD088688A68C0F340008B68C2F340222E
:1017D000C3F340431043184329D04A69204622F0FE
:1017E00001024A6194F83C10122906D00AE0012057
:1017F000DAE70122DDE70123E0E701684A6922F424
:101800000F424A6190F83C10422908D0522908D072
:10181000722908D080F83C5000F088FB09E02221B2
:1018200002E0322100E0622180F83C10F4E746F447
:10183000006620688168544A114381602168C86845
:10184000496910F0030FC1F3400104D019B1002120
:101850002046FFF71DF921680869496910F0030F58
:10186000C1F3001104D019B101212046FFF710F98E
:10187000206C3043206420688169426911F0010FB7
:101880004369C2F30022C3F3C03305D022B11BB1B8
:10189000216C41F0010121648169C1F34003416978
:1018A000C1F340224169C1F3C0312BB122B119B15A
:1018B000216C41F0020121648169C1F38003416917
:1018C0004269C1F38021C2F3C0322BB121B11AB1F8
:1018D000216C41F004012164816911F0700F08D07E
:1018E00000224169C1F3C0234169C1F3C03112B183
:1018F00021E00122F5E7F3B1E9B1816901F070015E
:1019000040292FD006DC102909D020290BD03029FE
:101910000DD123E0502929D0602908D12AE0216C7B
:1019200041F0080102E0216C41F01001216481695D
:1019300021F070018161206C00280DD02168042005
:10194000486084F83C502068416948F65B729143D6
:1019500041612046FFF7FEFEBDE8F081216C41F0B9
:101960002001E3E7216C41F04001DFE7216C41F009
:101970008001DBE7216C41F48071D7E703000004AC
:101980000003000800000310190501002DE9F041D3
:10199000040004D094F83C00002518B107E00120B1
:1019A000BDE8F08184F83D50204600F093F8022015
:1019B00084F83C002068016821F002010160206881
:1019C000016841F00101016000F004FE07460326B2
:1019D00005E000BF00F0FEFDC01B0A2863D82068A8
:1019E0004068C007F6D020684168C90768D0A1697F
:1019F000012901683FD021F080010160E0690128E0
:101A0000206801683AD021F040010160206A012875
:101A10002068016835D021F020010160606A01284A
:101A20002068016830D021F010010160A06A01280F
:101A3000206801682BD021F008010160E06A0128CC
:101A40002068016826D021F004010160D4E9020178
:101A50000843D4E90412114308436168491E08434E
:101A60002168C8612068016821F00101016000F06F
:101A7000B1FD07461CE041F08001BEE741F04001A6
:101A8000C3E741F02001C8E741F01001CDE741F084
:101A90000801D2E741F00401D7E700BF00F09AFD4A
:101AA000C01B0A2804D904F83C6F0320657077E74F
:101AB00020684068C007F1D120684068C00703D0A3
:101AC000042084F83C006AE72564012084F83C0087
:101AD000002065E7F0B5324B0768DFF8C0C0186832
:101AE0000322022409252F490026401C87B06745A0
:101AF00021D11860012807D1086840F00070086003
:101B0000086800F0007005908DE85400CDE90325C9
:101B10006946254800F072FC00220521132000F0E0
:101B2000E3FD132000F0D4FD00220521142000F075
:101B3000DBFD14202EE0DFF874C067452CD10F6860
:101B400047F080670F600F68012807F080670597EE
:101B5000186007D1086840F000700860086800F05D
:101B6000007005904FF440508DE85100CDE90325F9
:101B700069460F4800F042FC002205213F2000F09A
:101B8000B3FD3F2000F0A4FD00220521402000F01D
:101B9000ABFD402000F09CFD07B0F0BD00640040AC
:101BA0006000002040380240000C02400068004005
:101BB0000004024030B511B1012925D010E090F8A1
:101BC0003C20222A28D090F83C20422A24D000BF72
:101BD00090F83C20622A1FD090F83C20722A1BD03B
:101BE00090F83D20012A17D0012280F83D20622282
:101BF00090F83C40722389B1122C19D0222C18D0B5
:101C0000422C19D0322214E090F83C20322A03D022
:101C100090F83C20522ADBD1022030BD122C05D096
:101C2000322C06D0522C07D0222202E0422200E0C1
:101C3000522280F83C2001E080F83C30002202640F
:101C400003685C6948F601752C435C6180F83D20AF
:101C500000680029416904D041F050014161002031
:101C600030BD41F00A01F9E710B5406B384903680F
:101C7000A1F11202A3F20123072B5CD2DFE803F0EB
:101C8000343E485204162A00818A49BA09B21180AA
:101C9000C38AB1F57A6F5BBA9380008B40BAD0816A
:101CA00049DA41F6FF700844108044E0C38A818A13
:101CB0005BBAD380008B49BA40BA108241F2B2209D
:101CC000814202D3A1F5005189B2224800FA81F085
:101CD000508030E0828A52BA0A81C28A52BA4A825D
:101CE000008B40BA888326E0828A52BA0A80C28A70
:101CF00052BA4A81008B40BA88821CE0828A52BA6A
:101D00004A80C28A52BA8A81008B40BAC88212E0E5
:101D1000828A52BA8A80C28A52BACA81008B40BA79
:101D2000088308E0828A52BACA80C28A52BA0A82FA
:101D3000008B40BA488308480068416941F00201BD
:101D4000416106480068416941F00201416110BDEE
:101D5000160600204EFDFFFF7C060020C006002076
:101D60002DE9F05F0E46016804468868400105D4FD
:101D70008868000102D48868C0006FD594F83D00DF
:101D800001280CD0012784F83D7094F83C002228EB
:101D900008D0322808D062280ED0122005E0022098
:101DA000BDE8F09F422000E0522084F83C008868A3
:101DB000400103D5002507E07220F6E7886800019E
:101DC00001D5012500E002254FF4C07000EB05109D
:101DD0000A5802F001020A50216B8A68EAB3D4F86B
:101DE00000C05CF800301343CA68496842EAC10188
:101DF0000B434CF80030216B0A7C02F00F020A61A1
:101E00004FF4C271226801EB0511535823F00F0300
:101E1000535022685358D4F830C0DCF810C043EA5D
:101E20000C035350216B4FF4C47303EB05130A7D6D
:101E3000D1F8151042EA01222168CA50216B4FF4F3
:101E4000C67303EB05130A7ED1F8191042EA01228A
:101E50002168CA5021680A5801E00DE05AE042F0BA
:101E600001020A5000F0B6FB81464FF00008DFF88F
:101E7000B0A0DFF8B0B026E022681358D1F80CC04B
:101E8000098843EA0C0343EA41511150B3E7701C3F
:101E900019D02EB100F09EFBA0EB0900B04212D980
:101EA000032084F83C004DB1012D09D04FF400000F
:101EB0002168886084F83D80032071E78020F7E77F
:101EC0004FF40040F4E7ADB12068012D816816D0D1
:101ED000154888430028DAD194F83C00422811D0F4
:101EE000522811D0722813D084F83C7084F83D80B9
:101EF000002055E7206881682AEA0100EAE72BEA1A
:101F00000100E7E7222000E0322084F83C00EDE702
:101F10006220FAE7042084F83C00012040E700003A
:101F2000030000040003000800000310704790F84D
:101F30003510022903D08021416501207047052119
:101F400080F835100068016821F00101016000206F
:101F5000704700002DE9F84304464FF00009CDF822
:101F6000009063484FF41651A56D0068B0FBF1F77F
:101F70002E6894F85C10082000FA01F131420FD06D
:101F800021680A6852070BD50A6822F004020A6029
:101F900094F85C108840A860606D40F001006065B6
:101FA00094F85C104FF0010808FA01F0304208D0B4
:101FB00021684969090604D5A860606D40F00200F7
:101FC000606594F85C1004208840304208D0216895
:101FD0000968890704D5A860606D40F00400606559
:101FE00094F85C1010208840304218D021680968AD
:101FF000090714D5A86020680168490304D5006862
:10200000000308D5A16C07E00168C90503D4016885
:1020100021F008010160216C09B12046884794F83D
:102020005C1020208840304231D021680968C90600
:102030002DD5A86094F8350005282068016806D0E1
:10204000490347D5006800031DD4616C1CE021F0F2
:10205000160101602068416921F080014161206C16
:1020600008B9A06C20B12068016821F00801016066
:1020700094F85C103F208840A86084F8349084F87D
:102080003580216D1FE0E16B09B120468847606D06
:1020900000282BD0606DC00714D0052084F83500CF
:1020A0002068016821F0010101600098401C009047
:1020B000B84203D820680068C007F6D184F834908D
:1020C00084F83580E16C002910D001B02046BDE8CD
:1020D000F04308470168C905D5D4016821F0100113
:1020E000016084F8349084F83580CCE7BDE8F8834B
:1020F0007C0000202DE9F041044600F06BFA064612
:102100005CB1002584F83450022084F83500206842
:10211000016821F0010101600DE00120BDE8F081BE
:1021200000F058FA801B052805D92020606503209F
:1021300084F83500F2E720680068C007F0D1226813
:10214000116820480140D4E901031843D4E903365B
:102150003343184363691843A3691843E369184379
:10216000236A18430843616A042903D1D4E90B1395
:1021700019430843106020684069666A20F007012F
:1021800030460E43012704280CD1A06A0643E06ABA
:1021900040B12046FEF708FE20B14020606584F87B
:1021A0003570BAE7206846612046FEF7E9FD94F8ED
:1021B0005C203F2191408160656584F83570002086
:1021C000ACE700003F8010F070B5044690F8340092
:1021D000002501280CD0012084F8340094F83560E3
:1021E0000020012E06D084F834000225284670BD58
:1021F000022070BD022684F8356060652046FEF737
:10220000FDFD2068016841F001010160EEE72DE964
:10221000F0410446866D90F83400002501280DD069
:10222000012084F8340094F835700020012F07D085
:1022300084F8340002252846BDE8F0810220FBE73F
:10224000022784F8357060652046FEF7D7FD94F8C4
:102250005C103F208840B0602068016841F01601A2
:1022600001602068416941F080014161206C20B12A
:102270002068016841F0080101602068016841F0B0
:1022800001010160D7E731B500F0A4F9009C0546D3
:10229000601C00D0641C00F09DF9401BA042FAD3E2
:1022A00038BD00002DE9F047044623480F46017E63
:1022B00001290AD00121804601764CF25039484666
:1022C000FEF760FF020003D030E00220BDE8F08797
:1022D0004FF0FF3038602068184D012801D0A66803
:1022E0001DE0207C6168FEF7A7FE4846FEF74AFF26
:1022F0000246286848F204018843286014E0217CE3
:102300003046FEF745FE4846FEF73CFF02002868CF
:1023100020F0FA00286001D03E6005E0761CD4E988
:1023200002100844B042EAD8FEF75CFE002188F8AB
:1023300018101046CAE70000A40A0020103C024012
:102340000348016841F0004101600020704700002F
:10235000103C02402DE9F0471B4E05461446307EE6
:102360001F468946012808D0012030764CF25038AB
:102370004046FEF707FF18B114E00220BDE8F087E1
:102380009DB1012D16D0022D19D022463B4648465C
:10239000FEF782FE4046FEF7F5FE0C490A6822F081
:1023A00001020A6000213176E8E7E1B24846FEF713
:1023B00063FEEFE7A1B24846FEF782FEEAE7214658
:1023C0004846FEF78FFEE5E7A40A0020103C0240D5
:1023D000074900200A68002A09DA054A054B0C3A29
:1023E0001360054B13600968002900DA012070476B
:1023F000103C024023016745AB89EFCD2DE9F84F32
:10240000DFF890B100224FF001084FF0030A4FF0BF
:102410000F090BF1040E00BF0B6808FA02F4234009
:10242000A3426ED14D68022D01D0122D0ED1D508D8
:1024300000EB850CDCF820505607F70E09FA07F67A
:10244000B5430E69BE402E43CCF8206006685500A7
:102450000F790AFA05FC07F0030726EA0C06AF40DD
:10246000374307604E68012E05D0022E03D0112E8F
:1024700001D0122E0ED18768CE6827EA0C07AE4035
:102480003E4386604668A6430C79C4F3001494402A
:1024900034434460C4688E6824EA0C04AE4026438A
:1024A000C6604C68E4006FD53B4C256845F4804518
:1024B0002560246822F0030504F480440094374C1E
:1024C0002E19D6F8084895072F0F09FA07F5AC43DF
:1024D000334DA84201D100252EE0324DA84201D152
:1024E000012529E0304DA84201D1022524E02F4DDD
:1024F000A84201D103251FE02D4DA84202D1042599
:102500001AE041E02B4DA84201D1052514E02A4DE7
:10251000A84201D106250FE0284DA84201D1072588
:102520000AE0274DA84201D1082505E0254DA84223
:1025300001D1092500E00A25BD402543C6F8085809
:10254000DBF800405D464E689C43F60300D51C4313
:102550002C60DEF8004075464E689C43B60300D5FB
:102560001C432C600B4D08352C684E689C43F602CA
:1025700000D51C432C60074D0C352C684E689C43DD
:10258000B60200D51C432C60521C102AFFF444AF45
:10259000BDE8F88F003C0140443802400030014063
:1025A000000002400004024000080240000C02400B
:1025B000001002400014024000180240001C0240BB
:1025C00000200240002402400AB1816170470904E2
:1025D000FBE7000001480068704700008000002011
:1025E00002480168491C016070470000800000201B
:1025F0000B4810B5016841F400710160016841F4B5
:1026000080610160016841F480710160032000F085
:102610008BF80F2000F006F800F018F8002010BD2D
:10262000003C024010B5044607484FF47A71006838
:10263000B0FBF1F000F036FB00222146501E00F006
:1026400053F8002010BD00007C0000201F4808B592
:10265000016841F480410160006800F4804000900E
:102660001A48001F016841F080510160006800F0C5
:1026700080500090032000F057F8002211466FF0C0
:102680000B0000F031F8002211466FF00A0000F054
:102690002BF8002211466FF0090000F025F8002207
:1026A0001146501F00F020F800221146101F00F0C4
:1026B0001BF800220F21901E00F016F800220F21B7
:1026C000BDE80840501E00F00FB80000443802403A
:1026D00000F01F02012191404009800000F1E0203C
:1026E000C0F8001170470000F0B40E4B1B680C4698
:1026F000C3F30223C3F10705042D00D90425191DD6
:10270000072901D2002300E0DB1E012606FA05F1AD
:10271000491E214099409E40761E16403143F0BC30
:1027200000F0C6BF0CED00E0064900F007020868A3
:102730004FF6FF03184040EA0220034A10430860A6
:10274000704700000CED00E00000FA052DE9F843A9
:102750001748016841F0805101600068154F00F092
:102760008050012600903E64FFF734FF05464FF489
:102770007A78114C05E000BFFFF72CFF401B404565
:102780000DD86068C003F7D57E64FFF723FF0546C8
:10279000464607E0FFF71EFF401BB04202D9032068
:1027A000BDE8F88360688003F4D50020F8E70000F6
:1027B0004038024000000E42007000402DE9F04712
:1027C0000E46050065D0DFF81481D8F80000F7B296
:1027D00000F00F00B04207D288F80070D8F800006F
:1027E00000F00F00B04254D128683D4C810712D54B
:1027F000400703D5206840F4E050206028780007A7
:1028000003D5206840F4604020602068A96820F06B
:10281000F000084320602878C0072DD03049686850
:102820000839012812D0022813D0032811D00968D2
:10283000890700292DDA216821F003010143216075
:10284000FFF7C8FE814641F2883A0EE00968890325
:10285000EFE709688901ECE7FFF7BCFEA0EB09018F
:10286000514502D90320BDE8F0872068696800F06F
:102870000C00B0EB810FEFD1D8F80010404601F00A
:102880000F01B14207D90770006800F00F00B04295
:1028900001D00120E7E72878400705D52068E968DE
:1028A00020F4E050084320602878000706D520680F
:1028B000296920F4604040EAC100206000F03CF843
:1028C0002168084AC1F30311515CC84006490860F9
:1028D0000F20FFF7A7FE0020C5E70000003C0240E4
:1028E00008380240F06600087C00002001480068BB
:1028F000704700007C000020044805490068096812
:10290000044AC1F38221515CC84070477C0000201A
:102910000838024000670008044805490068096853
:10292000044AC1F34231515CC84070477C0000202A
:102930000838024000670008154810B5006810F01C
:102940000C02144813D01449042A0FD0082A0ED1BF
:102950000F4C241F2268236802F03F025B0207D558
:102960002068C0F38810A0FB010106E0084610BDF6
:102970002168C1F38811A1FB00010023FDF790FC41
:102980002168C1F30141491C4900B0FBF1F010BDC1
:10299000083802400024F400001BB7002DE9F84F6E
:1029A000050071D0DFF8D0922878A9F1040BC00798
:1029B000ABF104044AD0D9F800104846C1F38101B4
:1029C000012908D00068C0F3810002280AD1DBF891
:1029D0000000400206D52068800337D568680028CB
:1029E000DFD033E06868B0F5803F10D0B0F5A02F9D
:1029F000206810D020F480302060206820F48020EF
:102A000020606868A8B1FFF7E5FD06460DE0206884
:102A100040F48030F4E740F480202060F7E700BF06
:102A2000FFF7D8FD801B642873D820688003F7D592
:102A30000CE0FFF7CFFD064605E000BFFFF7CAFD3B
:102A4000801B6428F0D820688003F7D428788B4F47
:102A500080074FF0010A4FF000083DD5D9F800106B
:102A6000484611F00C0F08D00068C0F3810002281E
:102A70000BD1DBF80000400207D42068800715D591
:102A8000E868012800D111E0F3E0E868B0B1C7F8C8
:102A900000A0FFF79FFD064605E000BFFFF79AFD87
:102AA000801B022835D820688007F7D5206829695F
:102AB00020F0F80040EAC10020600DE0C7F8008077
:102AC000FFF788FD064604E0FFF784FD801B02281F
:102AD0001FD820688007F7D42878000724D56848D5
:102AE000696981B1C0F800A0FFF774FD064604E0F3
:102AF000FFF770FD801B02280BD85F486C30006820
:102B00008007F5D510E0C0F80080FFF763FD0646AA
:102B100005E074E0FFF75EFD801B02286FD8564881
:102B20006C3000688007F5D42878400753D55248A8
:102B30003830016841F080510160006800F0805039
:102B400000905048016841F480710160FFF742FD38
:102B5000064604E0FFF73EFD801B02284FD8494897
:102B60000068C005F6D5444EA868683601280FD025
:102B70000528306810D020F001003060306820F067
:102B800004003060A868B8B1FFF724FD00900FE0A2
:102B9000306840F00100F4E740F004003060F7E7EF
:102BA000FFF718FD0099411A41F28830814258D848
:102BB00030688007F4D50EE0FFF70CFD009007E0C9
:102BC000FFF708FD0099411A41F28830814248D848
:102BD00030688007F4D4A86990B3D9F80010C1F325
:102BE0008101022945D00228C7F8608003D0FFF791
:102BF000F1FC054638E0FFF7EDFC064605E030E065
:102C0000FFF7E8FC801B02282BD820688001F7D44E
:102C1000D5E907010843A96A1B4A490802EB0141AB
:102C20006A6A41EA8211084395F82C1040EA016172
:102C3000CBF80010C7F860A0FFF7CCFC054606E013
:102C400015E000BFFFF7C6FC401B022809D820682A
:102C50008001F7D50BE000BFFFF7BCFC401B02284A
:102C600002D90320BDE8F88F20688001F4D4002049
:102C7000F8E70120F6E7000008380240000047426C
:102C8000800E4742007000400000FFFF4FF0E0213F
:102C90000428086903D020F004000861704740F060
:102CA0000400FAE710B5401EB0F1807F01D3012087
:102CB00010BD4FF0E02460610F21601700F0F8FCB8
:102CC0000020A06107202061002010BD7047000097
:102CD00070B5026804461068D168536910F00F0F90
:102CE00050D003F0010501F4907635435DD0C20762
:102CF00005D0CA0503D5E26B42F00102E263420748
:102D000005D5DA0703D0E26B42F00202E2638207E4
:102D100005D5DA0703D0E26B42F00402E263020752
:102D200005D5DA0703D0E26B42F00802E263E26BFA
:102D3000002A33D0800604D5880602D5204600F04C
:102D4000BDFE20684069E16BC0F38010090700D424
:102D500028B3204600F07EFE2068416949061AD556
:102D6000416921F040014161606BA0B11B490165DF
:102D7000606BFFF7DCF8002810D0606B016DBDE8D8
:102D800070400847830610D58B060ED52046BDE857
:102D9000704000F093BE2046FFF798FF70BD2046BC
:102DA000FFF794FF0020E06370BD030606D50B0615
:102DB00004D52046BDE8704001F01CB84006F3D5AC
:102DC0004806F1D5D168204621F04001D16020218C
:102DD00084F8391000F0C7F970BD0000453A0008CA
:102DE00070B5040004D094F83900002510B106E055
:102DF000012070BD84F83850204600F023F82420CC
:102E000084F839002068C16821F40051C16020466F
:102E100000F09AFE2068016921F490410161206868
:102E2000416921F02A0141612068C16841F40051E3
:102E3000C160E563202084F8390084F83A0000205E
:102E400070BD00002DE9F04F0546D0F800C002200B
:102E5000DFF8CC82DFF8CCA201210322072387060A
:102E60000024460287B0C4453DD1DAF8008048F01E
:102E70001008CAF80080DAF800C00DF104080CF060
:102E8000100CCDF814C04FF0C00CCDF800C088E88D
:102E90000F006946A448FFF7B1FADFF89482A3490E
:102EA0004046C8F80010C0E90174C0E90346C8F8FC
:102EB0001440C8F81840C8F81C40C8F82040C8F8AA
:102EC0002440FFF717F918B1BA219AA001F021F8B0
:102ED000C5F83480002205212520C8F83850FFF7B6
:102EE00003FC252062E0DFF85C82DFF838B2DFF80F
:102EF00058E2ABF1040B4FF04009C4455BD1DBF85D
:102F0000008048F40038CBF80080DBF800C00DF1F9
:102F100004080CF4003CCDF814C04FF0600CCDF860
:102F200000C088E80F0069467046FFF767FADFF8CF
:102F300000A286490AF1600A5046CAF80010C0E9AA
:102F40000174C0E90346CAF81440CAF81840CAF828
:102F50001C40CAF82040B046CAF82440FFF7CAF81F
:102F600018B1E72173A000F0D4FF714EC5F834A06A
:102F7000C036CAF83850C6E903487461B461734872
:102F8000F46134621830746286E881023046FFF7DB
:102F9000B1F818B1F92167A000F0BBFF2E63002241
:102FA00005212620B563FFF79FFB2620FFF790FB46
:102FB00007B0BDE8F08FDFF89881C4455DD1DBF83C
:102FC0000080A24648F48028CBF80080DBF800C0DF
:102FD0000DF104080CF4802CCDF814C04FF4407CA3
:102FE000CDF800C088E80F0069467046FFF706FA82
:102FF0005649DFF8608160394046C8F80010C0E9E2
:103000000174C0E90346C8F81440C8F81840C8F86D
:103010001C40C8F82040C8F82440FFF76BF820B1E6
:103020004FF4937143A000F074FF4A4C4748C5F831
:10303000348060343038C8F8385084E88102C4E9FC
:1030400003A6C4F814A0C4F818A0C4F81CA0C4F8BF
:1030500020A02046C4F824A0FFF74CF820B14FF47C
:103060009C7134A000F055FF2C630022052127201D
:10307000A563FFF739FB272098E7374B9C4597D18D
:10308000DAF8007047F02007CAF80070DAF800306C
:1030900001AF03F0200305934FF48443009387E8C6
:1030A00007000820049069462C48FFF7A7F9294F2C
:1030B0001E48C037183838604FF02068C7E90184CF
:1030C000C7E903467C61BC61FC613C6238467C62B6
:1030D000FFF710F820B140F2651116A000F019FFBB
:1030E0006F63BD631E4F1148C7E903467C61BC6135
:1030F000FC613C6260307C6287E801033846FEF781
:10310000F9FF20B140F277110AA000F002FF2F630F
:10311000002205214720BD63FFF7E6FA472045E777
:103120000010014044380240000402404064024064
:10313000040800202E2E2F5372632F757361727452
:103140002E63000000440040000C024088600240F2
:1031500000480040240900200014014000180240EB
:10316000440A002070477047FEE70000094A00202B
:1031700009495379012B0AD04A89521C92B24A81DB
:103180000449C91D042A00D20120487170475071BA
:1031900048817047180000202C03002001F056FEE3
:1031A000FCE730F8241F01F001024280C1F3400225
:1031B0008280C1F38002C280C1F3C0020281C1F3E8
:1031C00000124281C1F340128281C1F38012C28198
:1031D000C1F3C0120282C1F300224282C1F3402235
:1031E0008282C1F38022C282C1F3C0220283C1F372
:1031F00000324283C1F340328283C1F38032C28302
:10320000C90B0184704700007FB51548134900249D
:1032100001604FF48031C0E90114046184611149F7
:103220000462C0E90A140125C460C56145610463F4
:10323000FEF717F918B152210BA000F06AFECDE994
:103240000045694606480294FEF75CF8002803D062
:103250005C2105A000F05DFE7FBD00000020014064
:10326000340600200100000F2E2E2F5372632F61B1
:1032700064632E6300000000104810B50E49016021
:103280000521416000214FF400328160C0E9031242
:103290005201C0E905210122C0E907214162816292
:1032A000C162FEF773FB002805D0BDE81040502135
:1032B00003A000F02EBE10BD006400407C0600207C
:1032C0002E2E2F5372632F63616E2E630000000059
:1032D000104810B50E4901600521416000214FF4EE
:1032E00000328160C0E903125201C0E905210122C8
:1032F000C0E9072141628162C162FEF747FB0028F5
:1033000005D0BDE81040662103A000F002BE10BD4C
:1033100000680040C00600202E2E2F5372632F63DA
:10332000616E2E6300000000254808B5016841F475
:1033300000110160016801F400110091016841F47D
:10334000800101600068002200F4800000900521E7
:103350000C20FFF7C9F90C20FFF7BAF9002205216C
:103360000E20FFF7C1F90E20FFF7B2F90022052168
:103370001020FFF7B9F91020FFF7AAF90022052164
:103380001120FFF7B1F91120FFF7A2F90022052162
:103390003920FFF7A9F93920FFF79AF90022052112
:1033A0003A20FFF7A1F93A20FFF792F90022052110
:1033B0004520FFF799F9BDE808404520FFF788B997
:1033C0003038024010B59EB0142221496846FCF7FF
:1033D00098FF0021684601F03DFE1E4C1C49142256
:1033E0002060143105A8FCF78CFF002105A801F02E
:1033F00031FE17496060142228310AA8FCF781FFCA
:1034000000210AA801F026FE1149A06014223C31D7
:103410000FA8FCF776FF00210FA801F01BFE0C4956
:10342000E0601422503114A8FCF76BFF002114A8AF
:1034300001F010FE064920611422643119A8FCF73E
:1034400060FF002119A801F005FE60611EB010BDEB
:1034500078660008640000202DE9F04F404887B0EE
:103460000024016841F040010160016801F0400161
:103470000591016841F001010160016801F001015D
:103480000591016841F002010160016801F002014B
:103490000591016841F008010160016801F008012F
:1034A0000591016841F080010160016801F080012F
:1034B0000591016841F010010160016801F01001FF
:1034C0000591016841F0200101600068DFF89490E7
:1034D00000F020004FF4FF75059000222946484671
:1034E000FFF772F8DFF880A04FF4805600223146D3
:1034F0005046FFF769F8DFF874B0771000223946BC
:103500005846FFF761F84FF48048002241461848BA
:10351000FFF75AF800950125CDE901546946484660
:103520000394FEF76BFF0096CDE9015469465046BF
:103530000394FEF763FF0097CDE9015469465846AE
:103540000394FEF75BFFCDF80080CDE90154694696
:1035500007480394FEF752FF07B0BDE8F08F000064
:103560003038024000180240000C024000100240B7
:10357000001402400E4810B50C4901600D4941602D
:1035800000214FF480628160C0E903120C22C0E97F
:103590000521C161FFF724FC002805D0BDE81040DB
:1035A000572105A000F0B5BC10BD0000001001407F
:1035B00004070020A08601002E2E2F5372632F7562
:1035C000736172742E6300000D4810B50B490160E1
:1035D0004FF4E1214160002181600C22C160C0E90B
:1035E00004128161C161FFF7FBFB002805D0BDE833
:1035F00010406A2103A000F08CBC10BD00440040C4
:10360000440700202E2E2F5372632F75736172743E
:103610002E6300000D4810B50B4901604FF4E131F5
:103620004160002181600C22C160C0E90412816107
:10363000C161FFF7D5FB002805D0BDE810407D2112
:1036400003A000F066BC10BD0048004084070020C5
:103650002E2E2F5372632F75736172742E630000C8
:103660000D4810B50B4901604FF4E1314160002174
:1036700081600C22C160C0E904128161C161FFF761
:10368000AFFB002805D0BDE81040902103A000F05A
:1036900040BC10BD00140140C40700202E2E2F5343
:1036A00072632F75736172742E630000FEE77047BA
:1036B0000907090E002806DA00F00F0000F1E020EB
:1036C00080F8141D704700F1E02080F80014704766
:1036D0000178662905D0417A882902D000218177B6
:1036E0007047417881774188018481884184C1880D
:1036F0008184704770B504462DED028B6620E0731F
:103700001E48807C002836D0072801D8EE2000E033
:10371000DD201B4E2074B6F90000A0F5145030389F
:10372000FCF72CFF9FED178B53EC182BFCF7B4FE26
:10373000FCF735FF0546B6F90200FCF71FFF53EC16
:10374000182BFCF7A9FEFCF72AFF6574290AA1745F
:10375000E074000A2075142060750020E075882050
:10376000207604F10F01BDEC028B0A22BDE8704007
:10377000064800F04BB8BDEC028B70BD4E05002032
:10378000040600208716D9CEF79311404407002085
:1037900070B5044690F83900202801D0212829D19D
:1037A00021B31AB394F83800012823D0012084F8FB
:1037B0003800A162A2850025E56394F8390021282C
:1037C00016D0222084F8390008461346666B21681B
:1037D00002463046091DFEF7F7FC2068416941F0BA
:1037E0004001416184F83850002070BD012070BD57
:1037F0002320E7E7022070BD10B50368DC6844F0C1
:103800001004DC60FFF7C4FF002010BD70B5044653
:10381000C9B1C2B12162A284E2840020E063212008
:1038200084F83900256813462A1D206BFEF7EFFC4B
:1038300021686FF0400008602068416941F0800114
:103840004161002070BD012070BD0000F8B5044644
:1038500000680E460168C90663D50168406800909B
:10386000606B02682F4882420AD02F48824207D0FC
:103870002C486030824203D02B486030824201D114
:10388000202522E027481830C51482421DD0264842
:103890001830824219D023487830824215D022480D
:1038A0007830824211D01F48AD02303082420CD0B5
:1038B0001D483030824208D01A489030824204D0ED
:1038C00019489030824200D0AD01204600F0D0F877
:1038D000606B0068016821F001010160606B1249B2
:1038E00000684831884202D90F48001F05E00D49A1
:1038F000A831884203D90C480838056008E0094A15
:10390000084948321039904201D9CD6000E08D60FD
:10391000606B00684660606B0068016841F00101FF
:103920000160F8BD1060024010640240012001F007
:103930003DFBFBE701F094F8FCE710B5FEF750FE05
:10394000BDE8104001F07CBB30B5274893B000259E
:10395000016841F080510160006800F080501190D2
:103960002248016841F4404101600068022400F4EB
:103970004040119001200090000401908001CDE9A9
:10398000064006200890B420CDE9090404200B90DD
:103990006846FFF703F800B1FEE7FEF7D7FE00B177
:1039A000FEE70CA90F2081E831004FF4A0500F90E2
:1039B0004FF48050109005210CA8FEF7FFFE00B1D7
:1039C000FEE7FEF793FF4FF47A71B0FBF1F0FFF7DB
:1039D00069F90420FFF75AF900220F21501EFEF763
:1039E00083FE13B030BD000040380240007000403C
:1039F0001048016841F4700101600F48016841F00E
:103A0000010101600C4A00210832116002680B4B71
:103A10001A400260031D0A4A1A60026822F48022DA
:103A2000026005480C300160024958068039086080
:103A30007047000088ED00E000380240FFFFF6FE0E
:103A40001030002410B5806B0021C185C184FFF7C0
:103A50003DF910BD0168CA6822F49072CA6001681D
:103A60004A6922F001024A61202180F83A10704729
:103A70000B4B01210B4A984204D111700A490B48A3
:103A8000FDF7D0B90A4B984202D10A48FFF720BE91
:103A9000094B984202D1517101F058BF70470000A4
:103AA0000407002018000020900400205C0400207F
:103AB0004407002036040020C407002010B590F809
:103AC0003A10222901D0022010BD8168B1F5805F33
:103AD00011D00169002901681FD0496801F07F03F6
:103AE000816A4A1C82620B70C18D491E0904090C4F
:103AF000C18518D026E00269816A002A02685268EE
:103B000005D0D2B20A80816A491C8162ECE7C2F317
:103B100008020A80816A891CF7E74A68816A4B1C9F
:103B200083620A70E0E70168CA6822F49072CA6092
:103B300001684A6922F001024A61202180F83A10A6
:103B4000FFF710FB002010BD2DE9F041044600688E
:103B5000016921F44052E168114301612168C8689C
:103B600049F20C6290432369A268E5691A436369CC
:103B70002B431A430243CA602168486920F440720B
:103B8000A06910434861E1696425B1F5004F974889
:103B9000974A21684FF032083FD0914201D08142CC
:103BA0007CD1FEF7B9FE00EBC00101EB00106168AB
:103BB0008900B0FBF1F6FEF7AFFE00EBC00101EBB0
:103BC000001061688900B0FBF1F0B0FBF5F06FF018
:103BD0001801484306EB800108EB0110B0FBF5F03B
:103BE00000F0F006FEF798FE00EBC00101EB0010BC
:103BF00061688900B0FBF1F0B0FBF5F006EB001650
:103C0000FEF78AFE00EBC00101EB0010616889003D
:103C1000B0FBF1F7FEF780FED2E0914201D0814285
:103C20003DD1FEF779FE00EBC00101EB00106168A9
:103C30004900B0FBF1F0B0FBF5F00601FEF76CFEB9
:103C400000EBC00101EB001061684900B0FBF1F727
:103C5000FEF762FE00EBC00101EB00106168490055
:103C6000B0FBF1F0B0FBF5F06FF01801484307EB43
:103C7000800108EBC100B0FBF5F000F0F80006EBA6
:103C80004006FEF749FE00EBC00101EB0010616841
:103C90004900B0FBF1F7FEF73FFE3CE055E0FEF7D0
:103CA0002BFE00EBC00101EB001061684900B0FB86
:103CB000F1F0B0FBF5F00601FEF71EFE00EBC001CF
:103CC00001EB001061684900B0FBF1F7FEF714FE4C
:103CD00000EBC00101EB001061684900B0FBF1F09E
:103CE000B0FBF5F06FF01801484307EB800108EBDB
:103CF000C100B0FBF5F000F0F80006EB4006FEF75F
:103D0000FBFD00EBC00101EB001061684900B0FB56
:103D1000F1F7FEF7F1FD00EBC00101EB0010616867
:103D20004900B0FBF1F0B0FBF5F06FF0180148432B
:103D300007EB800108EBC100B0FBF5F000F00700D5
:103D4000216830448860BDE8F081FEF7D5FD00EBC6
:103D5000C00101EB001061688900B0FBF1F6FEF7CD
:103D6000CBFD00EBC00101EB001061688900B0FBE6
:103D7000F1F0B0FBF5F06FF01801484306EB80015D
:103D800008EB0110B0FBF5F000F0F006FEF7B4FD13
:103D900000EBC00101EB001061688900B0FBF1F09D
:103DA000B0FBF5F006EB0016FEF7A6FD00EBC00138
:103DB00001EB001061688900B0FBF1F7FEF79CFD94
:103DC00000EBC00101EB001061688900B0FBF1F06D
:103DD000B0FBF5F06FF01801484307EB800108EBEA
:103DE0000110B0FBF5F000F00F00A9E7001401404E
:103DF0000010014090F83910212901D002207047AD
:103E00008168B1F5805F016A0BD04A1C02620268CA
:103E100009785160C18C491E0904090CC1840ED077
:103E200017E009880268C1F308015160016900299F
:103E3000016A02D0491C0162ECE7891CFBE70168BA
:103E4000CA6822F08002CA600068C16841F040017F
:103E5000C16000207047000010B51E210348FFF725
:103E6000F5FCBDE810400148FEF732BF0407002012
:103E700010B51E210348FFF7E9FCBDE810400148DA
:103E8000FEF726BF4407002010B537210348FFF78F
:103E9000DDFCBDE810400148FEF71ABF8407002092
:103EA00032210148FFF7D2BCC4070020FEE7000022
:103EB00030B50C46050014D0022C12D90A48A11EB8
:103EC00042882846FDF7E8F92919C2B211F8023CE8
:103ED0009A4206D111F8011CB1EB102F01D101203B
:103EE00030BD002030BD00005000002030B50C4631
:103EF00005000CD0022C0AD9FF22611EFDF7E2F961
:103F0000291911F8011C814201D1012030BD002086
:103F100030BDFEE703B401984100009850EAC1208B
:103F200018BF04204A0D18BF40F0010040F2FF7294
:103F3000B2EB515F08BF40F00200012808BF052026
:103F400002B070470000000010B52F499FED2C1BF8
:103F50002DED020B84B0059820F000408842D8BFB8
:103F60009DED040B2DDD2949884209D1049840B903
:103F70004FF0010000F0D4FC00F0A2FC06B010BD30
:103F800005DB9DED040B00F08FFC06B010BD68460C
:103F90009DED040B00F0A0F810F0030004BF9DEDB0
:103FA000021B9DED000B0CD001280ED09DED021BD5
:103FB0009DED000B022817D0012000F0DDFB06B0BC
:103FC00010BD00F0A5FA06B010BD9DED021B9DEDE1
:103FD000000B012000F0D0FB51EC100B81F00041F0
:103FE00006B041EC100B10BD00F092FA51EC100B32
:103FF00081F0004106B041EC100B10BD0000000044
:104000000000000000000000FB21E93F0000F07FFD
:1040100010B52F499FED2C1B2DED020B84B0059898
:1040200020F000408842DCBF00209DED040B32DD13
:104030002849884209D1049840B94FF0010000F0A6
:104040006FFC00F03DFC06B010BD05DB9DED040BE0
:1040500000F02AFC06B010BD68469DED040B00F090
:104060003BF810F0030011D0012818D09DED021B81
:104070009DED000B02281AD000F04AFA51EC100B0B
:1040800081F0004106B041EC100B10BD9DED021B0C
:104090009DED000B012000F06FFB06B010BD9DED03
:1040A000021B9DED000B00F033FA06B010BD01209D
:1040B00000F062FB51EC100B81F0004106B041ECC6
:1040C000100B10BD00000000000000000000000008
:1040D000FB21E93F0000F07F2DE9F14F04462DED73
:1040E000020B2DED088B8AB09FEDE70B80ED020BE4
:1040F000139EE74826F0004585420ADC9DED120B31
:10410000002084ED000B0AB0BDEC088B03B0BDE8C5
:10411000F08FE0489FEDE0AB9FEDE1BBA84247DDAB
:10412000E14F9FEDE39B9FEDE48B9DED120B53EC74
:104130001A2B51EC100B002E1CDDFCF7A7F941ECFB
:10414000100BBD4208D053EC1B2B51EC100BFCF7AD
:104150009DF9C4E900010BE053EC192B51EC100B55
:10416000FCF794F953EC182BFCF790F9C4E9000123
:104170000120C8E7FCF7E9F841EC100BBD4208D07C
:1041800053EC1B2B51EC100BFCF7DFF8C4E90001DA
:104190000BE053EC192B51EC100BFCF7D6F853EC59
:1041A000182BFCF7D2F8C4E900014FF0FF30AAE762
:1041B000C348A84279DB9DED120B51EC100B00F0C7
:1041C000E1FC41EC180B9FEDC00B53EC102BFCF7FE
:1041D00063F99FEDBF1B53EC112BFCF7B6F8FCF70E
:1041E000DEF90746FCF7CAF941EC190B53EC1A2B20
:1041F000FCF752F953EC182BFCF74BF941EC180B78
:1042000053EC1B2B51EC190BFCF746F9DFF8C8A255
:1042100041EC100B4FEA15580125FA4453EC102BD2
:1042200051EC180BFCF732F9032DC4E900013DD025
:10423000C1F30A5005EB4511A8EB0000113981428A
:1042400034DA0AEB051BB0EE48AA9BED000BF0EE4A
:1042500068AA53EC102B51EC190BFCF71DF941EC3B
:104260001B0B51EC1A0B53EC1B2BFCF70FF941EC19
:10427000180B51EC1A0B53EC182BFCF707F953EC05
:104280001B2BFCF703F99BED020B41EC1A0B53ECD3
:10429000102B51EC190BFCF7FFF853EC1A2BFCF721
:1042A000F5F841EC100B6D1CB8E70EE0002EA8BF2E
:1042B0003846BFF628AF94ED000B51EC100B81F09F
:1042C0000041C4E9000178421DE7C6F3130040F441
:1042D000801EC6F30A50A0F2F530471100F01F050A
:1042E000C5F12000DDF848B0089000200690079046
:1042F0000520EC467949002D07EB0002794408BF00
:1043000051F8221009D051F8223001EB8201AB4064
:104310004A68089922FA01F11943A1FB0E26A1FB74
:104320000B131A449A4234BF0123002303EB0608FF
:104330000CEB8003D3E901A60E448E4234BF012169
:10434000002192448A4411B1924502D903E092457A
:1043500001D2012100E00021C3E901A641444CF84B
:104360002010011EA0F10100C4DC029800F10050F1
:10437000850F0298DDE903678000DDF81480FCF703
:10438000FDF841EC1A0B3046FCF79DFA9FED541BEB
:1043900053EC112BFCF780F841EC1B0B3846FCF773
:1043A00092FA9FED511B53EC112BFCF775F841EC81
:1043B000180B4046FCF787FA9FED4D1B53EC112B71
:1043C000FCF76AF841EC190B51EC180B53EC192B64
:1043D000FBF7BBFF53EC1B2BFBF7B7FF53EC1A2B80
:1043E000FBF7B3FFCDE90801002008909DED080B15
:1043F00053EC1A2B51EC100BFCF748F853EC1B2B29
:10440000FCF744F853EC182BFCF740F853EC192B4D
:10441000FCF73FF89FED381B53EC112BFCF73CF8F1
:104420009FED370B41EC180B53EC102B9DED080B57
:1044300051EC100BFCF730F853EC182BFBF785FF11
:104440009FED310B41EC180B53EC102B9DED080B3D
:1044500051EC100BFCF720F853EC182BFBF775FF11
:1044600041EC100B139810F0004F06D06D4251EC48
:10447000100B81F0004141EC100B284684ED000B3D
:1044800041E6000000000000000000000000000005
:10449000FB21E93F7CD9024000004054FB21F93F59
:1044A0003163621A61B4D03DFB21F93F0000000086
:1044B0000000601A61B4D03D7370032E8A19A33BCB
:1044C000FB2139410000000083C8C96D305FE43F23
:1044D000000000000000E03F2225000070240000E2
:1044E000000000000000103E000000000000103C32
:1044F000000000000000103A182D4454FB21F93D43
:104500003326A611460B113C00000054FB21F93D57
:1045100010B52DED040B2DED088B82B0B0EE419A55
:10452000F0EE619A0B9820F000449FED4BABB4F194
:10453000795F11DA9DED0A0B51EC100BFCF72FF8A7
:10454000002801BFB0EE4A0AF0EE6A0A02B0BDECE4
:10455000088B04BF04B010BD9DED0A0B53EC102B6B
:1045600051EC100BFBF798FF41EC180B3C4806216F
:10457000B0EE480AF0EE680A784400F081F853EC97
:10458000182B51EC100BFBF787FF9DED0A0B41EC4C
:104590001B0B53EC192B51EC100BFBF77DFF41EC7F
:1045A000190B53EC1B2B51EC180BFBF775FF53EC5D
:1045B000192BFBF76BFF9FED2C0B41EC190B53EC08
:1045C000102B51EC180BFBF767FF41EC100B284840
:1045D000844210DA53EC192B51EC100BFBF756FF09
:1045E00053EC1A2BFBF755FF41EC100B02B0BDEC5E
:1045F000088B04B010BD1F48A042BCBF9FED1E1B1E
:104600008DED001B06DBA4F500100190002000904A
:104610009DED001B51EC100B53EC112BFBF736FFFB
:104620009DED000B41EC180B53EC102B51EC1A0BC9
:10463000FBF72CFF41EC1A0B53EC192B51EC180B28
:10464000FBF724FF53EC1A2BFBF723FF41EC100B75
:10465000CCE7000000000000000000000000F03F78
:104660009421000000000000000000000000E03F76
:104670003333D33F0000E93F000000000000D23F89
:1046800070B504462DED028B4D1E00EBC500B0EE5B
:10469000408AF0EE608A90ED000B35F0060017D0EE
:1046A00053EC182B51EC100BFBF7F6FE41EC100B02
:1046B0006D1E04EBC50090ED001B51EC100B53EC8C
:1046C000112BFBF742FE41EC100B35F00600E7D151
:1046D000022D36D0042D1CD0062D1CBFBDEC028B44
:1046E00070BD53EC182B51EC100BFBF7D5FE94ED7D
:1046F0000A1B53EC112BFBF728FE53EC182BFBF78E
:10470000CBFE94ED081B53EC112BFBF71EFE41EC86
:10471000100B53EC182B51EC100BFBF7BDFE94ED76
:10472000061B53EC112BFBF710FE53EC182BFBF779
:10473000B3FE94ED040B53EC102BFBF706FE41EC9B
:10474000100B53EC182B51EC100BFBF7A5FE94ED5E
:10475000021B53EC112BFBF7F8FD53EC182BFBF766
:104760009BFE94ED001B53EC112BFBF7EEFDBDEC13
:10477000028B41EC100B70BD31B504462DED040BDE
:104780002DED0A8BB0EE41BAF0EE61BA0B989DEDBB
:104790000A0B20F00040B0F1795F0DDA51EC100BFC
:1047A000FFF7B8FB042808BF00F09AF89DED0A0B4C
:1047B000BDEC0A8B05B030BD53EC102B51EC100B47
:1047C000FBF76AFE41EC180B9DED0A0B53EC182B1E
:1047D00051EC100BFBF760FE41EC190B2C48B0EECE
:1047E000480AF0EE680A05217844FFF749FF9FED7B
:1047F0002ACBB0EE40AAF0EE60AA9CB353EC1C2B7F
:1048000051EC190BFBF748FE41EC1C0B53EC1A2B37
:1048100051EC190BFBF740FE9FED210B41EC190BFE
:1048200053EC102B51EC1B0BFBF736FE53EC192B02
:10483000FBF72CFE53EC182BFBF72EFE53EC1B2B37
:10484000FBF724FE53EC1C2BFBF720FE9DED0A1B0F
:1048500053EC112BFBF71DFEBDEC0A8B05B041ECB0
:10486000100B30BDFFE753EC1A2B51EC180BFBF784
:1048700013FE53EC1C2BFBF768FD53EC192BFBF7D5
:104880000BFE9DED0A1B53EC112BFBF75EFDE3E7DE
:104890001C20000000000000495555555555C5BF66
:1048A000000000000000E03F10B553EC102B51EC6D
:1048B000100BFBF74AFD41EC100B10BD000000008F
:1048C0009FED050B10B553EC102B51EC100BFBF7C3
:1048D0008BFF41EC100B10BD000000000000000039
:1048E0009FED050B10B553EC102B51EC100BFBF7A3
:1048F000D3FD41EC100B10BD0000000000000010C3
:1049000002E008C8121F08C1002AFAD17047704798
:10491000002001E001C1121F002AFBD170470000F6
:104920000149086070470000E4000020D0ED000A53
:10493000F4EEC00AF1EE10FA09DCB1EE400AF4EE32
:10494000C00AF1EE10FA02D390ED000A704780ED34
:10495000000A704710B52148FCF722FE32211F489B
:10496000FCF7CCFD1D48FCF777FD800534D51B48CE
:10497000FCF774FD82B21A491A484A8003785B1C1E
:10498000DCB2002304700A2C00D1037000EE102A60
:10499000DFED150A0278B8EE400A01EB820220EE44
:1049A000200A82ED050A9FED110A81ED040A437089
:1049B000427801EB8203521CD3ED050AD2B20A2AD7
:1049C00030EE200A81ED040A4270F1D3F2EE040ABF
:1049D00080EE201A81ED031A10BD0000340600207D
:1049E000B803002026000020FFFF033C0000000069
:1049F00010B501F019F81C210348FCF703F8BDE8D5
:104A0000104001F031B800003C03002010B58AB01E
:104A10000020012103900490CDE906010E24CDE988
:104A20000814059000900190029069460948FCF72F
:104A300015FE694608480594FCF710FE054807492D
:104A400001631C3141630448243101631C3141631B
:104A50000AB010BD7C060020C0060020840500209E
:104A600008B50C48DFED0C2AB1EE032A90EC030ADE
:104A70000121DFED0A1A0C3000F0D6FB00F0A9FA94
:104A8000CDF80000FFF766FF0A21684600F095FAAE
:104A9000F8E70000580300209A99993ECDCC4C3D90
:104AA000084801220021B0F842300748012B05D008
:104AB0000171064B1B781BB1017070470271F8E75A
:104AC00002707047900400208C0200201F0000201C
:104AD0000748042102224171C17280F823204177E6
:104AE0004274C275012180F8291080F82F10704798
:104AF000F803002010B5124C1249A08F00F0BEF947
:104B00001049E08F891D00F0B9F90E49B4F8420050
:104B10001E3100F0B3F90B49608F183100F0AEF987
:104B20000849E08E0C3100F0A9F90649208F1231B6
:104B300000F0A4F900F0A8FDBDE81040FFF7B0BFF9
:104B400090040020F80300202DED028B82B000F0CD
:104B500040FA0B4CB7EE008ACDF80000FCF7FCF9E8
:104B6000FEF704FB20790A2104EB800090ED020A95
:104B700030EE080A80ED020A684600F01EFAEDE702
:104B80003C03002082B0CDE9000121F000400190FB
:104B90009DED000B02B051EC100B70472DE9F84F62
:104BA000DFF8A0A16848DFF8A4B19AF81880077868
:104BB0009BF827909BF82D60012100200BF1300419
:104BC000B8F1010F12D004F10E024FF0020E92F86C
:104BD0001EC0B2F92050B2F92230B2F92420B8F147
:104BE000020F74D0B8F1030F16D134E07FB12171F8
:104BF0009AED050ABDEEC00A10EE103A23809AED38
:104C0000040ABDEEC00A10EE102A628081E0207115
:104C1000EEE7012E73D020814D494A8BC989511A84
:104C2000232900DC208149483E30FEF763FDB4F9BA
:104C300006000090637B2279B4F90210B4F90000F9
:104C400000F0A6FD227BB4F90810B4F90A00BDE813
:104C5000F84F00F0C7BDF7B19AF823705646012F00
:104C60001BD0217196ED130ABDEEC00A10EE102A7A
:104C700022809AED120ABDEEC00A10EE102A628060
:104C80009BF80330334D5A46042B35F81350658199
:104C90000FD021730EE02071F2E7BCF1000F05D0B8
:104CA00084F804E025806380E280E9E7032626712A
:104CB000F8E72073D37B022B0AD060739AF8223076
:104CC000012B07D02081537D022B0AD00DE017E085
:104CD0006173F3E71F4D537A083D35F81330238194
:104CE000F1E72081608104232371D37E042B93D1CB
:104CF000FF232371184B59718BF81B008CE71CE0C4
:104D000087B1BCF1000F0FD084F804E025806380E8
:104D1000E280B9F1010F0AD020734FF47A716181FA
:104D2000607376E72071F4E703272771EEE72173BC
:104D300040F29C42628161736BE74FF416712181EE
:104D40006AE70000900400201F000020F803002004
:104D50004E050020380000208C02002090ED0A0A49
:104D6000B5EEC00AF1EE10FA01DCB1EE400AD0ED6A
:104D70000C0AB4EEE00AF1EE10FA02DD9FED030A30
:104D800001E0B7EE000A80ED030A70470000000062
:104D9000EFF30580002800D00120704730B415489B
:104DA000154A1449B0F84C0040F202244E31928862
:104DB000A0F20223A04215D008DC01280FD0A0F5F4
:104DC0000070013814D10B48803005E0012B0CD065
:104DD000042B0DD107489F3030BCFBF792BA054831
:104DE0006E30F9E703487230F6E702488F30F3E798
:104DF00030BC7047E00400205000002010B5114C7A
:104E0000A068B0F80110A1801E2915D20521FFF776
:104E10006DF8A0B1A188A0680931FFF749F870B119
:104E2000A288A1680848491E0932FBF76AFAFFF711
:104E3000B5FFA188A0680844401CA06010BDA06810
:104E4000FAE7000050000020260500200EB50A4CAD
:104E50004FF0FF352A460121684600F0C6F8DDE92B
:104E60000001082803D1C80701D000F06FFD002021
:104E700000F098FD2060EDE72C00002000230122C7
:104E8000012805D00B71088898B1401E0880704732
:104E900008790028FBD10A718878012801D18B702C
:104EA000CB70C8784A79904201D2401CC8702B2040
:104EB000ECE78A7070470000FDF79AFBFEF744FDAF
:104EC000FEF7CAFAFEF730FAFEF7D6F9FEF700FA57
:104ED000FEF750FBFEF778FBFEF79CFBFEF794F91C
:104EE000FEF7BEFBFFF792FD00210F48FCF762FEC4
:104EF00000210E48FCF75EFE1E220D490D48FEF70C
:104F00007BFC0F220C490D48FEF776FC32220C493F
:104F10000C48FEF771FC41F28830FDF7B4F9FEF75A
:104F200051FA00F051F8FEE77C060020C006002090
:104F30005C04002004070020360400204407002001
:104F4000E0040020C407002001460020842900D08E
:104F5000C81C704702490120087000F0CBBB00005C
:104F60003C03002010B50F4801F0AAF80D4801F0ED
:104F7000A9F90C4800F096FC0A480179012909D1E9
:104F80009FED090A80ED080A80ED090A80ED0A0A02
:104F900080ED0B0A4079012803D1BDE81040FFF7EE
:104FA000D9BF10BD8C0200200000000010B500B970
:104FB000012000F0D5FD002010BD10B501B9012180
:104FC00000F0F4FD002010BD10B500F035FE00200B
:104FD00010BD10B5FFF7DCFE18B1BDE8104000F0C1
:104FE0005BBFBDE8104000F051BFFEB5002506468E
:104FF0000F462C460195501C06D002B11446FFF70F
:10500000C7FE20B1822015E04FF0FF34F7E72346BA
:105010003946002001AA00F0ABFF012804D00CB1F2
:10502000402007E0009506E00198002801DA86207C
:1050300000E0082000909DE8070086E80700FEBD1C
:1050400010B500F015FF012803D0BDE8104000F0B6
:10505000CDBE10BD3EB504460D46B0F90800FFF7C1
:1050600073FF02A9CDE90001208A2B4682B2D4E960
:10507000001000F0D1FE012801D000203EBD0298B2
:105080003EBD00B580ED060AC0ED070A70EEC00A0D
:105090000146C0ED0A0A006D10B101283CD069E05C
:1050A00091ED0B0A70EE200AC1ED0B0A91ED0C0A8E
:1050B000F4EEC00AF1EE10FA06DCB1EE401AF4EE9E
:1050C000C10AF1EE10FA01D281ED0B0A0846FFF792
:1050D00045FE91ED000A91ED0A1A60EE010AC1ED5C
:1050E0000D0A91ED010AD1ED031A20EE210AD1ED4E
:1050F0000B1A20EE210A81ED0E0AD1ED091A30EECD
:10510000800A31EE611AD1ED021A21EE211A81EDE9
:105110000F1A30EE010A2BE091ED091AD1ED001AB9
:10512000B0EE082A30EEC11A21EE211A81ED0D1AD7
:10513000D1ED011A61EEA00AF0EE001AC1ED0E0ADF
:1051400020EE210AD1ED051A71EE200A01EEC20A05
:10515000D1ED041A30EE210AD1ED021A20EE210A17
:1051600081ED0F0A30EEC00AD1ED100A30EE200AB0
:1051700081ED100A91ED090A01F1400081ED080A64
:1051800091ED0A0A81ED090A91ED050A81ED040A03
:1051900091ED060A81ED050A91ED120A5DF804EB26
:1051A000FFF7C4BB70B51F4C04F13805D4ED080AF5
:1051B000B5F9000000EE100AA4F5D270B8EEC00AEE
:1051C000FFF75FFF04F1480686ED040AB5F9020017
:1051D000D4ED090A00EE100AA4F5A870B8EEC00AD2
:1051E000FFF74FFF86ED050AB5F90400D4ED0A0A72
:1051F00000EE100AA4F1FC00B8EEC00AFFF741FF70
:1052000086ED060AB5F90600D4ED0B0A00EE100A89
:10521000A4F1A800B8EEC00AFFF733FF86ED070A35
:1052200070BD00008C02002080EC030A0165C0ED17
:105230000C1A80ED122AC0ED132A70472DE9F041B7
:10524000184C0F460546E6682068001D00F098FBE4
:1052500038B9206890F82C100120884021698143DA
:105260002161681C07D137B12168BDE8F0410E48C3
:10527000091D00F0CDBB20683544B542456021686A
:1052800005D2A06BBDE8F041091D00F0A9BB606B21
:10529000091D00F0A5FBA06A854200D2A562BDE809
:1052A000F0810000A8000020A04700202DE9F04177
:1052B000054600F0B9FB2E4CA068401CA060206899
:1052C0002C4F10B1606940B32DE02560A068012823
:1052D00029D1002606EB860007EB800000F072FB68
:1052E000761C072EF6D323488C3000F06BFB214848
:1052F000A03000F067FB1F48B43000F063FB1D488E
:10530000C83000F05FFB1B48DC3000F05BFB194845
:105310008C3060631430A06305E02068E96AC06ADD
:10532000884200D82560606A401C6062E96A0120FA
:10533000226988401043206101EB810007EB800067
:10534000291D00F065FB00F08FFB606900280CD080
:105350002068E96AC06A884207D207494FF0805046
:105360000860BFF34F8FBFF36F8FBDE8F08100007F
:10537000A8000020C446002004ED00E070B5114EE6
:10538000114C17E000F08CFC3068B8B100F036FE2C
:1053900000F04AFBF068C568281D00F0F1FAA0682B
:1053A000401EA0606068401E606000F05DFB284603
:1053B00000F00CF860680028E4D170BD00F01EFE1B
:1053C000F8E700008C470020A800002010B5044634
:1053D000006B00F05DFB2046BDE8104000F058BBBC
:1053E00010484FF47051420706D0C01D0D4920F0FF
:1053F0000700411AC1F570510B4A00230144C2E96C
:1054000000030839103A21F0070111604B600B606E
:105410000B1AC0E9001393604FF000405360D06056
:1054200070470000C40A002094000020074C4FF091
:105430008056074DFFF7A2FF20680128FAD92E6099
:10544000BFF34F8FBFF36F8FF4E70000C446002017
:1054500004ED00E02DE9F0470E46DDE9098417462A
:10546000824691009946089DA522206BFAF75BFFC2
:105470006FF00301206B01EB8701084420F0070760
:10548000780707D0502080F31188BFF34F8FBFF308
:105490006F8FFEE72218315C82F83410315C11B155
:1054A000401C1028F6D3002684F84360072D00D353
:1054B0000625E562C4E91156201D00F08EFA04F1BC
:1054C000180000F08AFA2461C5F107006462A06147
:1054D000E66484F850604A465146384600F0BEF80B
:1054E0002060B8F1000F01D0C8F80040BDE8F08797
:1054F00030B5114900E011460A688242FBD34B687F
:105500005C18844203D140681844486008464368E8
:105510001C18944209D1084C103C2468A24209D0BE
:1055200052681A4442600A6812680260814200D0E0
:10553000086030BD0460F9E7940000200648416B24
:10554000096829B1416BC968C968496881627047B7
:105550004FF0FF31FAE70000A8000020084840683B
:10556000401C4FF0500080F3118804D0BFF34F8FE0
:10557000BFF36F8FFEE7BFF34F8FBFF36F8FFEE771
:105580009C0000202DE9F0410546002700F088FB33
:10559000314E306808B9FFF723FFF06805424BD160
:1055A000C5B3083568070ED005F00700C0F1080044
:1055B0000544680707D0502080F31188BFF34F8F50
:1055C000BFF36F8FFEE72DB37068854234D8224851
:1055D000103001460C6801E020460C466168A94283
:1055E00002D221680029F7D131688C4224D00768A3
:1055F0002168016060680837411B10290FD96019C4
:10560000420708D0502080F31188BFF34F8FBFF3BB
:105610006F8FFEE710E041606560FFF769FF61682A
:105620007068401A7060B268904200D2B060F06852
:1056300001430020C4E9000100F0E0FC780707D036
:10564000502080F31188BFF34F8FBFF36F8FFEE7B9
:105650003846BDE8F08100008400002010B5031F2B
:105660004FF080741C601B1F21F001011960191F8D
:10567000044B0B6014390A60091F6FF002024438B2
:105680000A6010BD5D55000818480121427E184887
:10569000012A09D0022A26D0032A07D190F82830FF
:1056A0000022012B03D00BE080F82810704790F8FF
:1056B0002730012B11D080F8271000BF80F8282058
:1056C00090F82E30012BF1D190F82D30012B07D01E
:1056D00080F82D1080F82E20704780F82720EDE705
:1056E00080F82D20F6E780F82E10704790040020F7
:1056F000F803002070B50F4C00252078012800D158
:1057000025702079DFED0C0A04EB800090ED020A91
:1057100080EE201AB5EEC01AF1EE10FA01D1FFF7B3
:1057200067F9A078012804D1A570BDE87040FFF7A3
:105730005FB970BD3C0300200000C842F0B4134CB8
:105740004FF40075266B3560266B0025B560266B1F
:10575000F560266B08253561266B050A3575256BC6
:105760006875256B080AA875206BC175216B100A36
:105770000876206B4276216B180A8876206B0A2106
:10578000C3762046F0BCFCF7EBBA0000C006002050
:10579000F0B4134C40F20136049D276B3E60276B3A
:1057A0000026BE60276BFE60276B08263E61276BD4
:1057B000060A3E75266B7075266B080AB075206B5D
:1057C000C175206B0276206B4376216B280A8876A0
:1057D000206B0A21C5762046F0BCFCF7C1BA000058
:1057E0007C0600200F4B30B41D6B4FF440742C60CE
:1057F0001D6B0024AC601D6BEC601D6B08242C61DC
:105800001D6B040A2C751C6B60751C6B080AA07557
:10581000186BC175186B0A21027630BC1846FCF76C
:105820009FBA00007C0600201B480178A0F5D270CA
:10583000012915D0194991ED000A80ED000A80ED8B
:10584000150A80ED2A0A80ED3F0A91ED010A80EDEC
:10585000010A80ED160A80ED2B0A80ED400A7047A0
:105860009FED0F0A80ED000A80ED150A80ED2A0AEF
:1058700080ED3F0A80ED010A80ED160A80ED2B0ACB
:1058800080ED400A80ED100A80ED250A80ED3A0A8D
:1058900080ED4F0A704700008C02002000000020BD
:1058A0000000000090ED082AD0ED091AB4EEE12ABC
:1058B000F1EE10FA02DD80ED0C2A01E0C0ED0C1AC9
:1058C00090ED0C0A90ED0A1AB4EEC10AF1EE10FA4E
:1058D00001D280ED0C1A90ED0C0AD0ED0B0AB4EE5B
:1058E000E00AF1EE10FA01D2C0ED0C0A90ED0C0ABC
:1058F000B5EEC00AF1EE10FA03D19FED110A80ED6A
:105900000C0AF0EE402A12EE901A0E4A914215DB74
:105910009FED0D3A83EE220A80ED0D0A22EE002A59
:1059200061EE801A21EE001A80ED082A20EE800A2E
:10593000C0ED091A80ED0A1A80ED0B0A70470000CD
:1059400017B7D13800A00C4600A00C4670B50B4C20
:10595000094D0020A5602070A0680178A52908D015
:10596000401CA060207A401BC0B220703228F3D9BE
:1059700070BDFFF743FAF5E7E00400205000002077
:10598000D0E9013201699A60D0E901235A604A687E
:10599000824201D182684A60002202610868401E8A
:1059A0000860704708B9064800680021006B01E0F4
:1059B000401C491C0278A52AFAD0C1F38F00704719
:1059C000A800002000F108014FF0FF32C0E90112E9
:1059D000C1600161002101607047002101617047D1
:1059E00030B50B685A1C02D000F1080202E00269CF
:1059F00004E02246546825689D42FAD953684B60FA
:105A000099608A60516008610168491C016030BD7D
:105A100042684A6093688B6093685960916008613E
:105A20000168491C01607047502080F31188BFF362
:105A30004F8FBFF36F8F0A494868401C48600128A8
:105A40000CD10848006810F0FF0F07D0502080F3F9
:105A50001188BFF34F8FBFF36F8FFEE770470000D1
:105A60009C00002004ED00E00849486828B1401E71
:105A7000486001D180F311887047502080F311886D
:105A8000BFF34F8FBFF36F8FFEE700009C00002035
:105A900070B5002827D0144DA0F108046168E868AB
:105AA000014207D1502080F31188BFF34F8FBFF31D
:105AB0006F8FFEE722683AB1502080F31188BFF360
:105AC0004F8FBFF36F8FFEE78143616000F0E8F80E
:105AD00060686968084468602046FFF709FDBDE812
